{
    "contractName": "Marketplace",
    "abi": [
        {
            "anonymous": false,
            "inputs": [
                {
                    "indexed": false,
                    "internalType": "address",
                    "name": "operator",
                    "type": "address"
                },
                {
                    "indexed": false,
                    "internalType": "address",
                    "name": "from",
                    "type": "address"
                },
                {
                    "indexed": false,
                    "internalType": "uint256[]",
                    "name": "tokenId",
                    "type": "uint256[]"
                },
                {
                    "indexed": false,
                    "internalType": "uint256[]",
                    "name": "amount",
                    "type": "uint256[]"
                },
                {
                    "indexed": false,
                    "internalType": "string",
                    "name": "standard",
                    "type": "string"
                },
                {
                    "indexed": false,
                    "internalType": "bytes",
                    "name": "data",
                    "type": "bytes"
                }
            ],
            "name": "BatchNFTReceived",
            "type": "event"
        },
        {
            "anonymous": false,
            "inputs": [
                {
                    "indexed": false,
                    "internalType": "address",
                    "name": "operator",
                    "type": "address"
                },
                {
                    "indexed": false,
                    "internalType": "address",
                    "name": "from",
                    "type": "address"
                },
                {
                    "indexed": false,
                    "internalType": "uint256",
                    "name": "tokenId",
                    "type": "uint256"
                },
                {
                    "indexed": false,
                    "internalType": "uint256",
                    "name": "amount",
                    "type": "uint256"
                },
                {
                    "indexed": false,
                    "internalType": "string",
                    "name": "standard",
                    "type": "string"
                },
                {
                    "indexed": false,
                    "internalType": "bytes",
                    "name": "data",
                    "type": "bytes"
                }
            ],
            "name": "NFTReceived",
            "type": "event"
        },
        {
            "anonymous": false,
            "inputs": [
                {
                    "indexed": false,
                    "internalType": "uint256",
                    "name": "offerId",
                    "type": "uint256"
                },
                {
                    "indexed": false,
                    "internalType": "address",
                    "name": "offerer",
                    "type": "address"
                },
                {
                    "indexed": false,
                    "internalType": "uint256",
                    "name": "offerPrice",
                    "type": "uint256"
                }
            ],
            "name": "NewOffer",
            "type": "event"
        },
        {
            "anonymous": false,
            "inputs": [
                {
                    "indexed": true,
                    "internalType": "address",
                    "name": "previousOwner",
                    "type": "address"
                },
                {
                    "indexed": true,
                    "internalType": "address",
                    "name": "newOwner",
                    "type": "address"
                }
            ],
            "name": "OwnershipTransferred",
            "type": "event"
        },
        {
            "anonymous": false,
            "inputs": [
                {
                    "indexed": false,
                    "internalType": "uint256",
                    "name": "offerId",
                    "type": "uint256"
                },
                {
                    "indexed": false,
                    "internalType": "address",
                    "name": "from",
                    "type": "address"
                },
                {
                    "indexed": false,
                    "internalType": "uint256",
                    "name": "tokenId",
                    "type": "uint256"
                },
                {
                    "indexed": false,
                    "internalType": "address",
                    "name": "contractAddress",
                    "type": "address"
                },
                {
                    "indexed": false,
                    "internalType": "uint256",
                    "name": "price",
                    "type": "uint256"
                }
            ],
            "name": "SaleCreated",
            "type": "event"
        },
        {
            "inputs": [
                {
                    "internalType": "uint256",
                    "name": "_marketOfferId",
                    "type": "uint256"
                }
            ],
            "name": "acceptOffer",
            "outputs": [],
            "stateMutability": "nonpayable",
            "type": "function"
        },
        {
            "inputs": [
                {
                    "internalType": "uint256",
                    "name": "_marketOfferId",
                    "type": "uint256"
                }
            ],
            "name": "buySale",
            "outputs": [],
            "stateMutability": "payable",
            "type": "function"
        },
        {
            "inputs": [
                {
                    "internalType": "uint256",
                    "name": "_marketOfferId",
                    "type": "uint256"
                }
            ],
            "name": "cancelOffer",
            "outputs": [],
            "stateMutability": "nonpayable",
            "type": "function"
        },
        {
            "inputs": [
                {
                    "internalType": "uint256",
                    "name": "_marketOfferId",
                    "type": "uint256"
                }
            ],
            "name": "cancelSale",
            "outputs": [],
            "stateMutability": "nonpayable",
            "type": "function"
        },
        {
            "inputs": [
                {
                    "internalType": "address",
                    "name": "_contractAddress",
                    "type": "address"
                },
                {
                    "internalType": "uint256",
                    "name": "_tokenId",
                    "type": "uint256"
                },
                {
                    "internalType": "uint256",
                    "name": "_price",
                    "type": "uint256"
                }
            ],
            "name": "createSale",
            "outputs": [],
            "stateMutability": "nonpayable",
            "type": "function"
        },
        {
            "inputs": [
                {
                    "internalType": "uint256",
                    "name": "_marketOfferId",
                    "type": "uint256"
                }
            ],
            "name": "getOffer",
            "outputs": [
                {
                    "components": [
                        {
                            "internalType": "address",
                            "name": "contractAddress",
                            "type": "address"
                        },
                        {
                            "internalType": "address",
                            "name": "seller",
                            "type": "address"
                        },
                        {
                            "internalType": "address",
                            "name": "buyer",
                            "type": "address"
                        },
                        {
                            "internalType": "address",
                            "name": "offerAddress",
                            "type": "address"
                        },
                        {
                            "internalType": "uint256",
                            "name": "price",
                            "type": "uint256"
                        },
                        {
                            "internalType": "uint256",
                            "name": "tokenId",
                            "type": "uint256"
                        },
                        {
                            "internalType": "uint256",
                            "name": "offer",
                            "type": "uint256"
                        },
                        {
                            "internalType": "uint256",
                            "name": "offerTime",
                            "type": "uint256"
                        },
                        {
                            "internalType": "string",
                            "name": "standard",
                            "type": "string"
                        },
                        {
                            "internalType": "bool",
                            "name": "closed",
                            "type": "bool"
                        }
                    ],
                    "internalType": "struct Marketplace.MarketOffering",
                    "name": "",
                    "type": "tuple"
                }
            ],
            "stateMutability": "view",
            "type": "function"
        },
        {
            "inputs": [
                {
                    "internalType": "uint256",
                    "name": "_marketOfferId",
                    "type": "uint256"
                }
            ],
            "name": "makeOffer",
            "outputs": [],
            "stateMutability": "payable",
            "type": "function"
        },
        {
            "inputs": [],
            "name": "marketOffersNonce",
            "outputs": [
                {
                    "internalType": "uint256",
                    "name": "",
                    "type": "uint256"
                }
            ],
            "stateMutability": "view",
            "type": "function"
        },
        {
            "inputs": [],
            "name": "marketPlaceFee",
            "outputs": [
                {
                    "internalType": "uint256",
                    "name": "",
                    "type": "uint256"
                }
            ],
            "stateMutability": "view",
            "type": "function"
        },
        {
            "inputs": [],
            "name": "minimumCancelTime",
            "outputs": [
                {
                    "internalType": "uint256",
                    "name": "",
                    "type": "uint256"
                }
            ],
            "stateMutability": "view",
            "type": "function"
        },
        {
            "inputs": [
                {
                    "internalType": "uint256",
                    "name": "_marketOfferId",
                    "type": "uint256"
                },
                {
                    "internalType": "uint256",
                    "name": "_newPrice",
                    "type": "uint256"
                }
            ],
            "name": "modifySaleOrder",
            "outputs": [],
            "stateMutability": "nonpayable",
            "type": "function"
        },
        {
            "inputs": [
                {
                    "internalType": "address",
                    "name": "operator",
                    "type": "address"
                },
                {
                    "internalType": "address",
                    "name": "from",
                    "type": "address"
                },
                {
                    "internalType": "uint256[]",
                    "name": "ids",
                    "type": "uint256[]"
                },
                {
                    "internalType": "uint256[]",
                    "name": "values",
                    "type": "uint256[]"
                },
                {
                    "internalType": "bytes",
                    "name": "data",
                    "type": "bytes"
                }
            ],
            "name": "onERC1155BatchReceived",
            "outputs": [
                {
                    "internalType": "bytes4",
                    "name": "",
                    "type": "bytes4"
                }
            ],
            "stateMutability": "nonpayable",
            "type": "function"
        },
        {
            "inputs": [
                {
                    "internalType": "address",
                    "name": "operator",
                    "type": "address"
                },
                {
                    "internalType": "address",
                    "name": "from",
                    "type": "address"
                },
                {
                    "internalType": "uint256",
                    "name": "id",
                    "type": "uint256"
                },
                {
                    "internalType": "uint256",
                    "name": "value",
                    "type": "uint256"
                },
                {
                    "internalType": "bytes",
                    "name": "data",
                    "type": "bytes"
                }
            ],
            "name": "onERC1155Received",
            "outputs": [
                {
                    "internalType": "bytes4",
                    "name": "",
                    "type": "bytes4"
                }
            ],
            "stateMutability": "nonpayable",
            "type": "function"
        },
        {
            "inputs": [
                {
                    "internalType": "address",
                    "name": "operator",
                    "type": "address"
                },
                {
                    "internalType": "address",
                    "name": "from",
                    "type": "address"
                },
                {
                    "internalType": "uint256",
                    "name": "tokenId",
                    "type": "uint256"
                },
                {
                    "internalType": "bytes",
                    "name": "data",
                    "type": "bytes"
                }
            ],
            "name": "onERC721Received",
            "outputs": [
                {
                    "internalType": "bytes4",
                    "name": "",
                    "type": "bytes4"
                }
            ],
            "stateMutability": "nonpayable",
            "type": "function"
        },
        {
            "inputs": [],
            "name": "owner",
            "outputs": [
                {
                    "internalType": "address",
                    "name": "",
                    "type": "address"
                }
            ],
            "stateMutability": "view",
            "type": "function"
        },
        {
            "inputs": [],
            "name": "renounceOwnership",
            "outputs": [],
            "stateMutability": "nonpayable",
            "type": "function"
        },
        {
            "inputs": [
                {
                    "internalType": "uint256",
                    "name": "_fees",
                    "type": "uint256"
                }
            ],
            "name": "setFees",
            "outputs": [],
            "stateMutability": "nonpayable",
            "type": "function"
        },
        {
            "inputs": [
                {
                    "internalType": "bytes4",
                    "name": "interfaceId",
                    "type": "bytes4"
                }
            ],
            "name": "supportsInterface",
            "outputs": [
                {
                    "internalType": "bool",
                    "name": "",
                    "type": "bool"
                }
            ],
            "stateMutability": "view",
            "type": "function"
        },
        {
            "inputs": [
                {
                    "internalType": "address",
                    "name": "newOwner",
                    "type": "address"
                }
            ],
            "name": "transferOwnership",
            "outputs": [],
            "stateMutability": "nonpayable",
            "type": "function"
        },
        {
            "inputs": [],
            "name": "withdrawFees",
            "outputs": [],
            "stateMutability": "payable",
            "type": "function"
        }
    ],
    "bytecode": "60806040526202a30060055534801561001757600080fd5b5060016000556100263361002b565b61007d565b600180546001600160a01b038381166001600160a01b0319831681179093556040519116919082907f8be0079c531659141344cd1fd0a4f28419497f9722a3daafe3b4186f6b6457e090600090a35050565b6127988061008c6000396000f3fe60806040526004361061011f5760003560e01c8063acf1190d116100a0578063d80ea45711610064578063d80ea457146102fa578063e37b07601461031a578063ef706adf14610330578063f23a6e6114610350578063f2fde38b1461037057600080fd5b8063acf1190d14610271578063bc197c8114610284578063bd94b005146102a4578063bf70e8ca146102c4578063c815729d146102da57600080fd5b8063715018a6116100e7578063715018a6146101dd5780638da5cb5b146101f25780639a2f64741461021a5780639e4589091461022d5780639f161af21461025157600080fd5b806301ffc9a714610124578063150b7a02146101595780633d18678e146101865780634579268a146101a8578063476343ee146101d5575b600080fd5b34801561013057600080fd5b5061014461013f366004611e8f565b610390565b60405190151581526020015b60405180910390f35b34801561016557600080fd5b50610179610174366004611f1e565b6103c7565b6040516101509190611f91565b34801561019257600080fd5b506101a66101a1366004611fa6565b610436565b005b3480156101b457600080fd5b506101c86101c3366004611fa6565b610492565b6040516101509190612005565b6101a661060b565b3480156101e957600080fd5b506101a6610684565b3480156101fe57600080fd5b506001546040516001600160a01b039091168152602001610150565b6101a6610228366004611fa6565b610698565b34801561023957600080fd5b5061024360055481565b604051908152602001610150565b34801561025d57600080fd5b506101a661026c3660046120c3565b610854565b6101a661027f366004611fa6565b610e34565b34801561029057600080fd5b5061017961029f36600461213d565b6112c2565b3480156102b057600080fd5b506101a66102bf366004611fa6565b611337565b3480156102d057600080fd5b5061024360045481565b3480156102e657600080fd5b506101a66102f5366004611fa6565b611677565b34801561030657600080fd5b506101a66103153660046121fc565b611b0c565b34801561032657600080fd5b5061024360025481565b34801561033c57600080fd5b506101a661034b366004611fa6565b611b77565b34801561035c57600080fd5b5061017961036b36600461221e565b611cfb565b34801561037c57600080fd5b506101a661038b36600461229a565b611d6a565b60006001600160e01b03198216630271189760e51b14806103c157506301ffc9a760e01b6001600160e01b03198316145b92915050565b60007f6534e2b03649bd39764c956640f7fdd29d7bd36b642a687678e6a8e9147d5ed586868660018787604051610403969594939291906122e0565b60405180910390a1507f150b7a023d4804d13e8c85fb27262cb750cf6ba9f9dd3bb30d90f482ceeb4b1f95945050505050565b61043e611de3565b600a81111561048d5760405162461bcd60e51b815260206004820152601660248201527563616e2774206265206d6f7265207468616e2031302560501b60448201526064015b60405180910390fd5b600455565b604080516101408101825260008082526020820181905291810182905260608082018390526080820183905260a0820183905260c0820183905260e0820183905261010082015261012081019190915260008281526006602081815260409283902083516101408101855281546001600160a01b039081168252600183015481169382019390935260028201548316948101949094526003810154909116606084015260048101546080840152600581015460a08401529081015460c0830152600781015460e08301526008810180546101008401919061057290612343565b80601f016020809104026020016040519081016040528092919081815260200182805461059e90612343565b80156105eb5780601f106105c0576101008083540402835291602001916105eb565b820191906000526020600020905b8154815290600101906020018083116105ce57829003601f168201915b50505091835250506009919091015460ff16151560209091015292915050565b610613611de3565b60035460405160009133918381818185875af1925050503d8060008114610656576040519150601f19603f3d011682016040523d82523d6000602084013e61065b565b606091505b505090508061067c5760405162461bcd60e51b81526004016104849061237d565b506000600355565b61068c611de3565b6106966000611e3d565b565b6002600054036106ba5760405162461bcd60e51b8152600401610484906123ab565b60026000908155818152600660208190526040909120015434116107135760405162461bcd60e51b815260206004820152601060248201526f3737ba1032b737bab3b41032ba3432b960811b6044820152606401610484565b60008181526006602052604090206009015460ff161561076b5760405162461bcd60e51b81526020600482015260136024820152726f66666572206e6f7420617661696c61626c6560681b6044820152606401610484565b600081815260066020819052604090912001541561080a576000818152600660208190526040808320600381015492015490516001600160a01b03909216918381818185875af1925050503d80600081146107e2576040519150601f19603f3d011682016040523d82523d6000602084013e6107e7565b606091505b50509050806108085760405162461bcd60e51b81526004016104849061237d565b505b61081c670de0b6b3a7640000346123f8565b60009182526006602081905260408320908101919091556003810180546001600160a01b031916331790554260079091015560019055565b6040516301ffc9a760e01b81526001600160a01b038416906301ffc9a790610887906380ac58cd60e01b90600401611f91565b602060405180830381865afa1580156108a4573d6000803e3d6000fd5b505050506040513d601f19601f820116820180604052508101906108c8919061241a565b15610b77576040516331a9108f60e11b815260048101839052839033906001600160a01b03831690636352211e90602401602060405180830381865afa158015610916573d6000803e3d6000fd5b505050506040513d601f19601f8201168201806040525081019061093a919061243c565b6001600160a01b03161461097c5760405162461bcd60e51b81526020600482015260096024820152683737ba1037bbb732b960b91b6044820152606401610484565b60408051610140810182526001600160a01b038087168252336020808401918252600084860181815260608601828152608087018a815260a0880184815260c089018d815260e08a018681528b51808d018d5260068082526545524337323160d01b828b01526101008d019182526101208d01899052600280548a52998190529c9097208b518154908c166001600160a01b03199182161782559951600182018054918d16918c1691909117905595519786018054988b16988a1698909817909755925160038501805491909916971696909617909655945160048201559251600584015592519482019490945592516007840155519091906008820190610a8490826124bd565b5061012091909101516009909101805460ff1916911515919091179055604051632142170760e11b81526001600160a01b038216906342842e0e90610ad19033903090889060040161257d565b600060405180830381600087803b158015610aeb57600080fd5b505af1158015610aff573d6000803e3d6000fd5b50506002546040805191825233602083015281018690526001600160a01b0387166060820152608081018590527fc610100118115caa3992e04c82fdade9f75dc8364a7b6f1fcf9737b584a57313925060a001905060405180910390a160028054906000610b6c836125a1565b919050555050505050565b6040516301ffc9a760e01b81526001600160a01b038416906301ffc9a790610baa90636cdb3d1360e11b90600401611f91565b602060405180830381865afa158015610bc7573d6000803e3d6000fd5b505050506040513d601f19601f82011682018060405250810190610beb919061241a565b15610df657604051627eeac760e11b81523360048201526024810183905283906001906001600160a01b0383169062fdd58e90604401602060405180830381865afa158015610c3e573d6000803e3d6000fd5b505050506040513d601f19601f82011682018060405250810190610c6291906125ba565b1015610c9c5760405162461bcd60e51b81526020600482015260096024820152683737ba1037bbb732b960b91b6044820152606401610484565b60408051610140810182526001600160a01b038681168252336020808401918252600084860181815260608601828152608087018a815260a0880184815260c089018d815260e08a018681528b51808d018d526007808252664552433131353560c81b828b01526101008d019182526101208d01899052600280548a5260069a8b90529d9098208c5181546001600160a01b0319908116918e169190911782559a516001820180548d16918e1691909117905596519c870180548b169d8c169d909d17909c5593516003860180549099169916989098179096555160048301559351600582015593519184019190915590519082015591519091906008820190610da690826124bd565b5061012091909101516009909101805460ff1916911515919091179055604051637921219560e11b81526001600160a01b0382169063f242432a90610ad1903390309088906001906004016125d3565b60405162461bcd60e51b815260206004820152600e60248201526d1b9bdd081c9958dbd9db9a5e995960921b6044820152606401610484565b505050565b600260005403610e565760405162461bcd60e51b8152600401610484906123ab565b6002600090815581815260066020526040902060040154610e7f90670de0b6b3a764000061260b565b3414610ec45760405162461bcd60e51b81526020600482015260146024820152731b9bdd081d1a19481c9a59da1d08185b5bdd5b9d60621b6044820152606401610484565b6000606460045434610ed6919061260b565b610ee091906123f8565b610eea903461262a565b9050606460045434610efc919061260b565b610f0691906123f8565b60036000828254610f17919061263d565b90915550506000828152600660205260408082206001015490516001600160a01b039091169083908381818185875af1925050503d8060008114610f77576040519150601f19603f3d011682016040523d82523d6000602084013e610f7c565b606091505b5050905080610f9d5760405162461bcd60e51b81526004016104849061237d565b60008381526006602081815260408084206002810180546001600160a01b0319163390811790915560098201805460ff1916600190811790915583516101408101855283546001600160a01b03908116825291840154821695810195909552928401526003810154909116606083015260048101546080830152600581015460a08301529182015460c0820152600782015460e08201526008820180549192916101008401919061104d90612343565b80601f016020809104026020016040519081016040528092919081815260200182805461107990612343565b80156110c65780601f1061109b576101008083540402835291602001916110c6565b820191906000526020600020905b8154815290600101906020018083116110a957829003601f168201915b50505091835250506009919091015460ff16151560209091015280516040516301ffc9a760e01b81529192506001600160a01b0316906301ffc9a790611117906380ac58cd60e01b90600401611f91565b602060405180830381865afa158015611134573d6000803e3d6000fd5b505050506040513d601f19601f82011682018060405250810190611158919061241a565b156111ca57805160a0820151604051632142170760e11b81526001600160a01b03909216916342842e0e91611193913091339160040161257d565b600060405180830381600087803b1580156111ad57600080fd5b505af11580156111c1573d6000803e3d6000fd5b505050506112b7565b80516040516301ffc9a760e01b81526001600160a01b03909116906301ffc9a79061120090636cdb3d1360e11b90600401611f91565b602060405180830381865afa15801561121d573d6000803e3d6000fd5b505050506040513d601f19601f82011682018060405250810190611241919061241a565b1561127f57805160a0820151604051637921219560e11b81526001600160a01b039092169163f242432a9161119391309133916001906004016125d3565b60405162461bcd60e51b815260206004820152600d60248201526c1b9bdd081cdd5c1c1bdc9d1959609a1b6044820152606401610484565b505060016000555050565b60007f499cdf5238cb20ecc171c9d2c59ae8ff3c58a7c5f2ca6d5a767d6a7f78fc30a38989898989898989604051611301989796959493929190612682565b60405180910390a1507f8e334cae20e92cf558fb076dea4c54d2468524b23d31b3415ab6e7a55cfc639498975050505050505050565b6002600054036113595760405162461bcd60e51b8152600401610484906123ab565b600260009081558181526006602052604090206009015460ff16156113b25760405162461bcd60e51b815260206004820152600f60248201526e1bd999995c881a5cc818db1bdcd959608a1b6044820152606401610484565b600081815260066020819052604090912060098101805460ff19166001179055015415611460576000818152600660208190526040808320600381015492015490516001600160a01b03909216918381818185875af1925050503d8060008114611438576040519150601f19603f3d011682016040523d82523d6000602084013e61143d565b606091505b505090508061145e5760405162461bcd60e51b81526004016104849061237d565b505b600081815260066020526040908190205490516301ffc9a760e01b81526001600160a01b03909116906301ffc9a7906114a4906380ac58cd60e01b90600401611f91565b602060405180830381865afa1580156114c1573d6000803e3d6000fd5b505050506040513d601f19601f820116820180604052508101906114e5919061241a565b15611568576000818152600660205260409081902080546005909101549151632142170760e11b81526001600160a01b03909116916342842e0e9161153191309133919060040161257d565b600060405180830381600087803b15801561154b57600080fd5b505af115801561155f573d6000803e3d6000fd5b5050505061166f565b600081815260066020526040908190205490516301ffc9a760e01b81526001600160a01b03909116906301ffc9a7906115ac906380ac58cd60e01b90600401611f91565b602060405180830381865afa1580156115c9573d6000803e3d6000fd5b505050506040513d601f19601f820116820180604052508101906115ed919061241a565b1561166f576000818152600660205260409081902080546005909101549151637921219560e11b81526001600160a01b039091169163f242432a9161163c9130913391906001906004016125d3565b600060405180830381600087803b15801561165657600080fd5b505af115801561166a573d6000803e3d6000fd5b505050505b506001600055565b6002600054036116995760405162461bcd60e51b8152600401610484906123ab565b60026000908155818152600660205260409020600101546001600160a01b031633146116f45760405162461bcd60e51b815260206004820152600a60248201526937b7363c9037bbb732b960b11b6044820152606401610484565b6004546000828152600660208190526040822001549091606491611718919061260b565b61172291906123f8565b6000838152600660208190526040909120015461173f919061262a565b905060646004546006600085815260200190815260200160002060060154611767919061260b565b61177191906123f8565b60036000828254611782919061263d565b90915550506000828152600660205260408082206001015490516001600160a01b039091169083908381818185875af1925050503d80600081146117e2576040519150601f19603f3d011682016040523d82523d6000602084013e6117e7565b606091505b50509050806118085760405162461bcd60e51b81526004016104849061237d565b600083815260066020818152604080842060038101546002820180546001600160a01b0319166001600160a01b03928316908117909155948201546004830181905560098301805460ff191660019081179091558451610140810186528454841681529084015490921694820194909452918201849052606082019390935260808101829052600583015460a082015260c0810191909152600782015460e0820152600882018054919291610100840191906118c390612343565b80601f01602080910402602001604051908101604052809291908181526020018280546118ef90612343565b801561193c5780601f106119115761010080835404028352916020019161193c565b820191906000526020600020905b81548152906001019060200180831161191f57829003601f168201915b50505091835250506009919091015460ff16151560209091015280516040516301ffc9a760e01b81529192506001600160a01b0316906301ffc9a79061198d906380ac58cd60e01b90600401611f91565b602060405180830381865afa1580156119aa573d6000803e3d6000fd5b505050506040513d601f19601f820116820180604052508101906119ce919061241a565b15611a1f5780516000858152600660205260409081902060028101546005909101549151632142170760e11b81526001600160a01b03938416936342842e0e9361119393309392169160040161257d565b80516040516301ffc9a760e01b81526001600160a01b03909116906301ffc9a790611a5590636cdb3d1360e11b90600401611f91565b602060405180830381865afa158015611a72573d6000803e3d6000fd5b505050506040513d601f19601f82011682018060405250810190611a96919061241a565b15611ad457805160a0820151604051637921219560e11b81526001600160a01b039092169163f242432a9161119391309133916001906004016125d3565b60405162461bcd60e51b815260206004820152600d60248201526c139bdd081cdd5c1c1bdc9d1959609a1b6044820152606401610484565b6000828152600660205260409020600101546001600160a01b03163314611b625760405162461bcd60e51b815260206004820152600a6024820152693737ba1039b2b63632b960b11b6044820152606401610484565b60009182526006602052604090912060040155565b600260005403611b995760405162461bcd60e51b8152600401610484906123ab565b60026000908155818152600660205260409020600301546001600160a01b03163314611bf95760405162461bcd60e51b815260206004820152600f60248201526e3737ba103a34329037b33332b932b960891b6044820152606401610484565b600554600082815260066020526040902060070154611c18919061263d565b4211611c665760405162461bcd60e51b815260206004820152601960248201527f343868206d696e696d756d206265666f72652063616e63656c000000000000006044820152606401610484565b60008181526006602081905260408083206003810180546001600160a01b031916905590910182905551819081908181818181805af1925050503d8060008114611ccc576040519150601f19603f3d011682016040523d82523d6000602084013e611cd1565b606091505b5050905080611cf25760405162461bcd60e51b81526004016104849061237d565b50506001600055565b60007f6534e2b03649bd39764c956640f7fdd29d7bd36b642a687678e6a8e9147d5ed5878787878787604051611d3696959493929190612707565b60405180910390a1507ff23a6e612e1ff4830e658fe43f4e3cb4a5f8170bd5d9e69fb5d7a7fa9e4fdf979695505050505050565b611d72611de3565b6001600160a01b038116611dd75760405162461bcd60e51b815260206004820152602660248201527f4f776e61626c653a206e6577206f776e657220697320746865207a65726f206160448201526564647265737360d01b6064820152608401610484565b611de081611e3d565b50565b6001546001600160a01b031633146106965760405162461bcd60e51b815260206004820181905260248201527f4f776e61626c653a2063616c6c6572206973206e6f7420746865206f776e65726044820152606401610484565b600180546001600160a01b038381166001600160a01b0319831681179093556040519116919082907f8be0079c531659141344cd1fd0a4f28419497f9722a3daafe3b4186f6b6457e090600090a35050565b600060208284031215611ea157600080fd5b81356001600160e01b031981168114611eb957600080fd5b9392505050565b6001600160a01b0381168114611de057600080fd5b60008083601f840112611ee757600080fd5b50813567ffffffffffffffff811115611eff57600080fd5b602083019150836020828501011115611f1757600080fd5b9250929050565b600080600080600060808688031215611f3657600080fd5b8535611f4181611ec0565b94506020860135611f5181611ec0565b935060408601359250606086013567ffffffffffffffff811115611f7457600080fd5b611f8088828901611ed5565b969995985093965092949392505050565b6001600160e01b031991909116815260200190565b600060208284031215611fb857600080fd5b5035919050565b6000815180845260005b81811015611fe557602081850181015186830182015201611fc9565b506000602082860101526020601f19601f83011685010191505092915050565b6020815261201f6020820183516001600160a01b03169052565b6000602083015161203b60408401826001600160a01b03169052565b5060408301516001600160a01b03811660608401525060608301516001600160a01b038116608084015250608083015160a083015260a083015160c083015260c083015160e083015260e083015161010081818501528085015191505061014061012081818601526120b1610160860184611fbf565b95015115159301929092525090919050565b6000806000606084860312156120d857600080fd5b83356120e381611ec0565b95602085013595506040909401359392505050565b60008083601f84011261210a57600080fd5b50813567ffffffffffffffff81111561212257600080fd5b6020830191508360208260051b8501011115611f1757600080fd5b60008060008060008060008060a0898b03121561215957600080fd5b883561216481611ec0565b9750602089013561217481611ec0565b9650604089013567ffffffffffffffff8082111561219157600080fd5b61219d8c838d016120f8565b909850965060608b01359150808211156121b657600080fd5b6121c28c838d016120f8565b909650945060808b01359150808211156121db57600080fd5b506121e88b828c01611ed5565b999c989b5096995094979396929594505050565b6000806040838503121561220f57600080fd5b50508035926020909101359150565b60008060008060008060a0878903121561223757600080fd5b863561224281611ec0565b9550602087013561225281611ec0565b94506040870135935060608701359250608087013567ffffffffffffffff81111561227c57600080fd5b61228889828a01611ed5565b979a9699509497509295939492505050565b6000602082840312156122ac57600080fd5b8135611eb981611ec0565b81835281816020850137506000828201602090810191909152601f909101601f19169091010190565b600060018060a01b03808916835280881660208401525085604083015284606083015260c06080830152600660c08301526545524337323160d01b60e08301526101008060a084015261233681840185876122b7565b9998505050505050505050565b600181811c9082168061235757607f821691505b60208210810361237757634e487b7160e01b600052602260045260246000fd5b50919050565b6020808252601490820152733330b4b632b2103a379039b2b7321032ba3432b960611b604082015260600190565b6020808252601f908201527f5265656e7472616e637947756172643a207265656e7472616e742063616c6c00604082015260600190565b634e487b7160e01b600052601160045260246000fd5b60008261241557634e487b7160e01b600052601260045260246000fd5b500490565b60006020828403121561242c57600080fd5b81518015158114611eb957600080fd5b60006020828403121561244e57600080fd5b8151611eb981611ec0565b634e487b7160e01b600052604160045260246000fd5b601f821115610e2f57600081815260208120601f850160051c810160208610156124965750805b601f850160051c820191505b818110156124b5578281556001016124a2565b505050505050565b815167ffffffffffffffff8111156124d7576124d7612459565b6124eb816124e58454612343565b8461246f565b602080601f83116001811461252057600084156125085750858301515b600019600386901b1c1916600185901b1785556124b5565b600085815260208120601f198616915b8281101561254f57888601518255948401946001909101908401612530565b508582101561256d5787850151600019600388901b60f8161c191681555b5050505050600190811b01905550565b6001600160a01b039384168152919092166020820152604081019190915260600190565b6000600182016125b3576125b36123e2565b5060010190565b6000602082840312156125cc57600080fd5b5051919050565b6001600160a01b0394851681529290931660208301526040820152606081019190915260a06080820181905260009082015260c00190565b6000816000190483118215151615612625576126256123e2565b500290565b818103818111156103c1576103c16123e2565b808201808211156103c1576103c16123e2565b81835260006001600160fb1b0383111561266957600080fd5b8260051b80836020870137939093016020019392505050565b6001600160a01b0389811682528816602082015260c0604082018190526000906126af908301888a612650565b82810360608401526126c2818789612650565b8381036080850181905260078252664552433131353560c81b6020830152604090810160a08601520190506126f88185876122b7565b9b9a5050505050505050505050565b6001600160a01b03878116825286166020820152604081018590526060810184905260c060808201819052600790820152664552433131353560c81b60e08201526000610100820182810360a08401526123368185876122b756fea264697066735822122062d419ce0adbc5b1a4254efec1895dceed765898cbbd507a9555f2076995c96f64736f6c63430008100033",
    "sourcePath": "/home/torof/Save-01-09-2022/current-projects/nft_marketplace/contracts/Marketplace.sol",
    "compiler": {
        "name": "solc",
        "version": "0.8.16+commit.07a7930e"
    },
    "functionHashes": {
        "acceptOffer(uint256)": "c815729d",
        "buySale(uint256)": "acf1190d",
        "cancelOffer(uint256)": "ef706adf",
        "cancelSale(uint256)": "bd94b005",
        "createSale(address,uint256,uint256)": "9f161af2",
        "getOffer(uint256)": "4579268a",
        "makeOffer(uint256)": "9a2f6474",
        "marketOffersNonce()": "e37b0760",
        "marketPlaceFee()": "bf70e8ca",
        "minimumCancelTime()": "9e458909",
        "modifySaleOrder(uint256,uint256)": "d80ea457",
        "onERC1155BatchReceived(address,address,uint256[],uint256[],bytes)": "bc197c81",
        "onERC1155Received(address,address,uint256,uint256,bytes)": "f23a6e61",
        "onERC721Received(address,address,uint256,bytes)": "150b7a02",
        "owner()": "8da5cb5b",
        "renounceOwnership()": "715018a6",
        "setFees(uint256)": "3d18678e",
        "supportsInterface(bytes4)": "01ffc9a7",
        "transferOwnership(address)": "f2fde38b",
        "withdrawFees()": "476343ee"
    },
    "gasEstimates": {
        "creation": {
            "codeDepositCost": "2027200",
            "executionCost": "72205",
            "totalCost": "2099405"
        },
        "external": {
            "acceptOffer(uint256)": "infinite",
            "buySale(uint256)": "infinite",
            "cancelOffer(uint256)": "infinite",
            "cancelSale(uint256)": "infinite",
            "createSale(address,uint256,uint256)": "infinite",
            "getOffer(uint256)": "infinite",
            "makeOffer(uint256)": "infinite",
            "marketOffersNonce()": "2339",
            "marketPlaceFee()": "2384",
            "minimumCancelTime()": "2384",
            "modifySaleOrder(uint256,uint256)": "24656",
            "onERC1155BatchReceived(address,address,uint256[],uint256[],bytes)": "infinite",
            "onERC1155Received(address,address,uint256,uint256,bytes)": "infinite",
            "onERC721Received(address,address,uint256,bytes)": "infinite",
            "owner()": "2346",
            "renounceOwnership()": "infinite",
            "setFees(uint256)": "24582",
            "supportsInterface(bytes4)": "450",
            "transferOwnership(address)": "infinite",
            "withdrawFees()": "infinite"
        }
    }
}