{
  "abi": [
    {
      "inputs": [
        {
          "internalType": "uint256",
          "name": "_amount",
          "type": "uint256"
        }
      ],
      "stateMutability": "nonpayable",
      "type": "constructor"
    },
    {
      "anonymous": false,
      "inputs": [
        {
          "indexed": true,
          "internalType": "address",
          "name": "account",
          "type": "address"
        },
        {
          "indexed": true,
          "internalType": "address",
          "name": "operator",
          "type": "address"
        },
        {
          "indexed": false,
          "internalType": "bool",
          "name": "approved",
          "type": "bool"
        }
      ],
      "name": "ApprovalForAll",
      "type": "event"
    },
    {
      "anonymous": false,
      "inputs": [
        {
          "indexed": true,
          "internalType": "address",
          "name": "operator",
          "type": "address"
        },
        {
          "indexed": true,
          "internalType": "address",
          "name": "from",
          "type": "address"
        },
        {
          "indexed": true,
          "internalType": "address",
          "name": "to",
          "type": "address"
        },
        {
          "indexed": false,
          "internalType": "uint256[]",
          "name": "ids",
          "type": "uint256[]"
        },
        {
          "indexed": false,
          "internalType": "uint256[]",
          "name": "values",
          "type": "uint256[]"
        }
      ],
      "name": "TransferBatch",
      "type": "event"
    },
    {
      "anonymous": false,
      "inputs": [
        {
          "indexed": true,
          "internalType": "address",
          "name": "operator",
          "type": "address"
        },
        {
          "indexed": true,
          "internalType": "address",
          "name": "from",
          "type": "address"
        },
        {
          "indexed": true,
          "internalType": "address",
          "name": "to",
          "type": "address"
        },
        {
          "indexed": false,
          "internalType": "uint256",
          "name": "id",
          "type": "uint256"
        },
        {
          "indexed": false,
          "internalType": "uint256",
          "name": "value",
          "type": "uint256"
        }
      ],
      "name": "TransferSingle",
      "type": "event"
    },
    {
      "anonymous": false,
      "inputs": [
        {
          "indexed": false,
          "internalType": "string",
          "name": "value",
          "type": "string"
        },
        {
          "indexed": true,
          "internalType": "uint256",
          "name": "id",
          "type": "uint256"
        }
      ],
      "name": "URI",
      "type": "event"
    },
    {
      "inputs": [],
      "name": "BOOTS",
      "outputs": [
        {
          "internalType": "uint256",
          "name": "",
          "type": "uint256"
        }
      ],
      "stateMutability": "view",
      "type": "function"
    },
    {
      "inputs": [],
      "name": "HELMET",
      "outputs": [
        {
          "internalType": "uint256",
          "name": "",
          "type": "uint256"
        }
      ],
      "stateMutability": "view",
      "type": "function"
    },
    {
      "inputs": [],
      "name": "POTIONS",
      "outputs": [
        {
          "internalType": "uint256",
          "name": "",
          "type": "uint256"
        }
      ],
      "stateMutability": "view",
      "type": "function"
    },
    {
      "inputs": [],
      "name": "SHIELD",
      "outputs": [
        {
          "internalType": "uint256",
          "name": "",
          "type": "uint256"
        }
      ],
      "stateMutability": "view",
      "type": "function"
    },
    {
      "inputs": [],
      "name": "SWORDS",
      "outputs": [
        {
          "internalType": "uint256",
          "name": "",
          "type": "uint256"
        }
      ],
      "stateMutability": "view",
      "type": "function"
    },
    {
      "inputs": [
        {
          "internalType": "address",
          "name": "account",
          "type": "address"
        },
        {
          "internalType": "uint256",
          "name": "id",
          "type": "uint256"
        }
      ],
      "name": "balanceOf",
      "outputs": [
        {
          "internalType": "uint256",
          "name": "",
          "type": "uint256"
        }
      ],
      "stateMutability": "view",
      "type": "function"
    },
    {
      "inputs": [
        {
          "internalType": "address[]",
          "name": "accounts",
          "type": "address[]"
        },
        {
          "internalType": "uint256[]",
          "name": "ids",
          "type": "uint256[]"
        }
      ],
      "name": "balanceOfBatch",
      "outputs": [
        {
          "internalType": "uint256[]",
          "name": "",
          "type": "uint256[]"
        }
      ],
      "stateMutability": "view",
      "type": "function"
    },
    {
      "inputs": [
        {
          "internalType": "uint256",
          "name": "id",
          "type": "uint256"
        }
      ],
      "name": "exists",
      "outputs": [
        {
          "internalType": "bool",
          "name": "",
          "type": "bool"
        }
      ],
      "stateMutability": "view",
      "type": "function"
    },
    {
      "inputs": [
        {
          "internalType": "address",
          "name": "account",
          "type": "address"
        },
        {
          "internalType": "address",
          "name": "operator",
          "type": "address"
        }
      ],
      "name": "isApprovedForAll",
      "outputs": [
        {
          "internalType": "bool",
          "name": "",
          "type": "bool"
        }
      ],
      "stateMutability": "view",
      "type": "function"
    },
    {
      "inputs": [
        {
          "internalType": "uint256",
          "name": "_id",
          "type": "uint256"
        },
        {
          "internalType": "uint256",
          "name": "_amount",
          "type": "uint256"
        }
      ],
      "name": "mint",
      "outputs": [],
      "stateMutability": "nonpayable",
      "type": "function"
    },
    {
      "inputs": [
        {
          "internalType": "uint256",
          "name": "_amount",
          "type": "uint256"
        }
      ],
      "name": "mintBoots",
      "outputs": [],
      "stateMutability": "nonpayable",
      "type": "function"
    },
    {
      "inputs": [
        {
          "internalType": "uint256",
          "name": "_amount",
          "type": "uint256"
        }
      ],
      "name": "mintHelmet",
      "outputs": [],
      "stateMutability": "nonpayable",
      "type": "function"
    },
    {
      "inputs": [
        {
          "internalType": "uint256",
          "name": "_amount",
          "type": "uint256"
        }
      ],
      "name": "mintShield",
      "outputs": [],
      "stateMutability": "nonpayable",
      "type": "function"
    },
    {
      "inputs": [
        {
          "internalType": "uint256",
          "name": "_amount",
          "type": "uint256"
        }
      ],
      "name": "mintSword",
      "outputs": [],
      "stateMutability": "nonpayable",
      "type": "function"
    },
    {
      "inputs": [
        {
          "internalType": "address",
          "name": "from",
          "type": "address"
        },
        {
          "internalType": "address",
          "name": "to",
          "type": "address"
        },
        {
          "internalType": "uint256[]",
          "name": "ids",
          "type": "uint256[]"
        },
        {
          "internalType": "uint256[]",
          "name": "amounts",
          "type": "uint256[]"
        },
        {
          "internalType": "bytes",
          "name": "data",
          "type": "bytes"
        }
      ],
      "name": "safeBatchTransferFrom",
      "outputs": [],
      "stateMutability": "nonpayable",
      "type": "function"
    },
    {
      "inputs": [
        {
          "internalType": "address",
          "name": "from",
          "type": "address"
        },
        {
          "internalType": "address",
          "name": "to",
          "type": "address"
        },
        {
          "internalType": "uint256",
          "name": "id",
          "type": "uint256"
        },
        {
          "internalType": "uint256",
          "name": "amount",
          "type": "uint256"
        },
        {
          "internalType": "bytes",
          "name": "data",
          "type": "bytes"
        }
      ],
      "name": "safeTransferFrom",
      "outputs": [],
      "stateMutability": "nonpayable",
      "type": "function"
    },
    {
      "inputs": [
        {
          "internalType": "address",
          "name": "operator",
          "type": "address"
        },
        {
          "internalType": "bool",
          "name": "approved",
          "type": "bool"
        }
      ],
      "name": "setApprovalForAll",
      "outputs": [],
      "stateMutability": "nonpayable",
      "type": "function"
    },
    {
      "inputs": [
        {
          "internalType": "bytes4",
          "name": "interfaceId",
          "type": "bytes4"
        }
      ],
      "name": "supportsInterface",
      "outputs": [
        {
          "internalType": "bool",
          "name": "",
          "type": "bool"
        }
      ],
      "stateMutability": "view",
      "type": "function"
    },
    {
      "inputs": [
        {
          "internalType": "uint256",
          "name": "id",
          "type": "uint256"
        }
      ],
      "name": "totalSupply",
      "outputs": [
        {
          "internalType": "uint256",
          "name": "",
          "type": "uint256"
        }
      ],
      "stateMutability": "view",
      "type": "function"
    },
    {
      "inputs": [
        {
          "internalType": "uint256",
          "name": "",
          "type": "uint256"
        }
      ],
      "name": "uri",
      "outputs": [
        {
          "internalType": "string",
          "name": "",
          "type": "string"
        }
      ],
      "stateMutability": "view",
      "type": "function"
    }
  ],
  "bytecode": {
    "object": "0x60806040523480156200001157600080fd5b50604051620021c3380380620021c3833981016040819052620000349162000681565b60408051808201909152601581527f68747470733a2f2f697066732e696f2f697066732f000000000000000000000060208201526200007381620000af565b50620000a83360018360405180604001604052806007815260200166706f74696f6e7360c81b815250620000c860201b60201c565b5062000903565b8051620000c4906002906020840190620005db565b5050565b6001600160a01b0384166200012e5760405162461bcd60e51b815260206004820152602160248201527f455243313135353a206d696e7420746f20746865207a65726f206164647265736044820152607360f81b60648201526084015b60405180910390fd5b3360006200013c85620001fb565b905060006200014b85620001fb565b90506200015e8360008985858962000249565b6000868152602081815260408083206001600160a01b038b1684529091528120805487929062000190908490620006b1565b909155505060408051878152602081018790526001600160a01b03808a1692600092918716917fc3d58168c5ae7397731d063d5bbf3d657854427343f4c083240f7aacaa2d0f62910160405180910390a4620001f283600089898989620003ff565b50505050505050565b60408051600180825281830190925260609160009190602080830190803683370190505090508281600081518110620002385762000238620006cc565b602090810291909101015292915050565b62000264868686868686620003f760201b620007171760201c565b6001600160a01b038516620002f85760005b8351811015620002f657828181518110620002955762000295620006cc565b602002602001015160036000868481518110620002b657620002b6620006cc565b602002602001015181526020019081526020016000206000828254620002dd9190620006b1565b90915550620002ee905081620006e2565b905062000276565b505b6001600160a01b038416620003f75760005b8351811015620001f25760008482815181106200032b576200032b620006cc565b6020026020010151905060008483815181106200034c576200034c620006cc565b6020026020010151905060006003600084815260200190815260200160002054905081811015620003d15760405162461bcd60e51b815260206004820152602860248201527f455243313135353a206275726e20616d6f756e74206578636565647320746f74604482015267616c537570706c7960c01b606482015260840162000125565b60009283526003602052604090922091039055620003ef81620006e2565b90506200030a565b505050505050565b6200041e846001600160a01b0316620005cc60201b6200071f1760201c565b15620003f75760405163f23a6e6160e01b81526001600160a01b0385169063f23a6e61906200045a908990899088908890889060040162000750565b6020604051808303816000875af192505050801562000498575060408051601f3d908101601f19168201909252620004959181019062000797565b60015b6200055957620004a7620007ca565b806308c379a01415620004e85750620004bf62000822565b80620004cc5750620004ea565b8060405162461bcd60e51b8152600401620001259190620008b1565b505b60405162461bcd60e51b815260206004820152603460248201527f455243313135353a207472616e7366657220746f206e6f6e204552433131353560448201527f526563656976657220696d706c656d656e746572000000000000000000000000606482015260840162000125565b6001600160e01b0319811663f23a6e6160e01b14620001f25760405162461bcd60e51b815260206004820152602860248201527f455243313135353a204552433131353552656365697665722072656a656374656044820152676420746f6b656e7360c01b606482015260840162000125565b6001600160a01b03163b151590565b828054620005e990620008c6565b90600052602060002090601f0160209004810192826200060d576000855562000658565b82601f106200062857805160ff191683800117855562000658565b8280016001018555821562000658579182015b82811115620006585782518255916020019190600101906200063b565b50620006669291506200066a565b5090565b5b808211156200066657600081556001016200066b565b6000602082840312156200069457600080fd5b5051919050565b634e487b7160e01b600052601160045260246000fd5b60008219821115620006c757620006c76200069b565b500190565b634e487b7160e01b600052603260045260246000fd5b6000600019821415620006f957620006f96200069b565b5060010190565b6000815180845260005b8181101562000728576020818501810151868301820152016200070a565b818111156200073b576000602083870101525b50601f01601f19169290920160200192915050565b6001600160a01b03868116825285166020820152604081018490526060810183905260a0608082018190526000906200078c9083018462000700565b979650505050505050565b600060208284031215620007aa57600080fd5b81516001600160e01b031981168114620007c357600080fd5b9392505050565b600060033d1115620007e45760046000803e5060005160e01c5b90565b601f8201601f191681016001600160401b03811182821017156200081b57634e487b7160e01b600052604160045260246000fd5b6040525050565b600060443d1015620008315790565b6040516003193d81016004833e81513d6001600160401b0380831160248401831017156200086157505050505090565b82850191508151818111156200087a5750505050505090565b843d8701016020828501011115620008955750505050505090565b620008a660208286010187620007e7565b509095945050505050565b602081526000620007c3602083018462000700565b600181811c90821680620008db57607f821691505b60208210811415620008fd57634e487b7160e01b600052602260045260246000fd5b50919050565b6118b080620009136000396000f3fe608060405234801561001057600080fd5b506004361061012b5760003560e01c8063a22cb465116100ad578063cfac891b11610071578063cfac891b1461027c578063d4a215371461028f578063e985e9c5146102a2578063f242432a146102de578063fa31a5e2146102f157600080fd5b8063a22cb46514610226578063b69442f514610239578063bd85b0391461024c578063c0be51521461026c578063cacbff981461027457600080fd5b80634e1273f4116100f45780634e1273f4146101c15780634f558e79146101e15780635b2725ed1461020357806364f69dca1461020b5780639fab9a941461021e57600080fd5b8062fdd58e1461013057806301ffc9a7146101565780630e89341c146101795780631b2ef1ca146101995780632eb2c2d6146101ae575b600080fd5b61014361013e366004611044565b6102f9565b6040519081526020015b60405180910390f35b610169610164366004611084565b61038f565b604051901515815260200161014d565b61018c6101873660046110a8565b6103e1565b60405161014d919061110e565b6101ac6101a7366004611121565b610475565b005b6101ac6101bc36600461128f565b6104a4565b6101d46101cf366004611339565b6104f0565b60405161014d919061143f565b6101696101ef3660046110a8565b600090815260036020526040902054151590565b610143600381565b6101ac6102193660046110a8565b61061a565b610143600581565b6101ac610234366004611452565b610647565b6101ac6102473660046110a8565b610652565b61014361025a3660046110a8565b60009081526003602052604090205490565b610143600281565b610143600481565b6101ac61028a3660046110a8565b61067c565b6101ac61029d3660046110a8565b6106a7565b6101696102b036600461148e565b6001600160a01b03918216600090815260016020908152604080832093909416825291909152205460ff1690565b6101ac6102ec3660046114c1565b6106d2565b610143600181565b60006001600160a01b0383166103695760405162461bcd60e51b815260206004820152602a60248201527f455243313135353a2061646472657373207a65726f206973206e6f742061207660448201526930b634b21037bbb732b960b11b60648201526084015b60405180910390fd5b506000908152602081815260408083206001600160a01b03949094168352929052205490565b60006001600160e01b03198216636cdb3d1360e11b14806103c057506001600160e01b031982166303a24d0760e21b145b806103db57506301ffc9a760e01b6001600160e01b03198316145b92915050565b6060600280546103f090611526565b80601f016020809104026020016040519081016040528092919081815260200182805461041c90611526565b80156104695780601f1061043e57610100808354040283529160200191610469565b820191906000526020600020905b81548152906001019060200180831161044c57829003601f168201915b50505050509050919050565b6104a033838360405180604001604052806007815260200166706f74696f6e7360c81b81525061072e565b5050565b6001600160a01b0385163314806104c057506104c085336102b0565b6104dc5760405162461bcd60e51b815260040161036090611561565b6104e98585858585610851565b5050505050565b606081518351146105555760405162461bcd60e51b815260206004820152602960248201527f455243313135353a206163636f756e747320616e6420696473206c656e677468604482015268040dad2e6dac2e8c6d60bb1b6064820152608401610360565b6000835167ffffffffffffffff81111561057157610571611143565b60405190808252806020026020018201604052801561059a578160200160208202803683370190505b50905060005b8451811015610612576105e58582815181106105be576105be6115b0565b60200260200101518583815181106105d8576105d86115b0565b60200260200101516102f9565b8282815181106105f7576105f76115b0565b602090810291909101015261060b816115dc565b90506105a0565b509392505050565b6106443360048360405180604001604052806005815260200164626f6f747360d81b81525061072e565b50565b6104a0338383610a34565b61064433600283604051806040016040528060058152602001641cdddbdc9960da1b81525061072e565b61064433600583604051806040016040528060068152602001651a195b1b595d60d21b81525061072e565b61064433600383604051806040016040528060068152602001651cda1a595b1960d21b81525061072e565b6001600160a01b0385163314806106ee57506106ee85336102b0565b61070a5760405162461bcd60e51b815260040161036090611561565b6104e98585858585610b15565b505050505050565b6001600160a01b03163b151590565b6001600160a01b03841661078e5760405162461bcd60e51b815260206004820152602160248201527f455243313135353a206d696e7420746f20746865207a65726f206164647265736044820152607360f81b6064820152608401610360565b33600061079a85610c4d565b905060006107a785610c4d565b90506107b883600089858589610c98565b6000868152602081815260408083206001600160a01b038b168452909152812080548792906107e89084906115f7565b909155505060408051878152602081018790526001600160a01b03808a1692600092918716917fc3d58168c5ae7397731d063d5bbf3d657854427343f4c083240f7aacaa2d0f62910160405180910390a461084883600089898989610e11565b50505050505050565b81518351146108b35760405162461bcd60e51b815260206004820152602860248201527f455243313135353a2069647320616e6420616d6f756e7473206c656e677468206044820152670dad2e6dac2e8c6d60c31b6064820152608401610360565b6001600160a01b0384166108d95760405162461bcd60e51b81526004016103609061160f565b336108e8818787878787610c98565b60005b84518110156109ce576000858281518110610908576109086115b0565b602002602001015190506000858381518110610926576109266115b0565b602090810291909101810151600084815280835260408082206001600160a01b038e1683529093529190912054909150818110156109765760405162461bcd60e51b815260040161036090611654565b6000838152602081815260408083206001600160a01b038e8116855292528083208585039055908b168252812080548492906109b39084906115f7565b92505081905550505050806109c7906115dc565b90506108eb565b50846001600160a01b0316866001600160a01b0316826001600160a01b03167f4a39dc06d4c0dbc64b70af90fd698a233a518aa5d07e595d983b8c0526c8f7fb8787604051610a1e92919061169e565b60405180910390a4610717818787878787610f6d565b816001600160a01b0316836001600160a01b03161415610aa85760405162461bcd60e51b815260206004820152602960248201527f455243313135353a2073657474696e6720617070726f76616c20737461747573604482015268103337b91039b2b63360b91b6064820152608401610360565b6001600160a01b03838116600081815260016020908152604080832094871680845294825291829020805460ff191686151590811790915591519182527f17307eab39ab6107e8899845ad3d59bd9653f200f220920489ca2b5937696c31910160405180910390a3505050565b6001600160a01b038416610b3b5760405162461bcd60e51b81526004016103609061160f565b336000610b4785610c4d565b90506000610b5485610c4d565b9050610b64838989858589610c98565b6000868152602081815260408083206001600160a01b038c16845290915290205485811015610ba55760405162461bcd60e51b815260040161036090611654565b6000878152602081815260408083206001600160a01b038d8116855292528083208985039055908a16825281208054889290610be29084906115f7565b909155505060408051888152602081018890526001600160a01b03808b16928c821692918816917fc3d58168c5ae7397731d063d5bbf3d657854427343f4c083240f7aacaa2d0f62910160405180910390a4610c42848a8a8a8a8a610e11565b505050505050505050565b60408051600180825281830190925260609160009190602080830190803683370190505090508281600081518110610c8757610c876115b0565b602090810291909101015292915050565b6001600160a01b038516610d1f5760005b8351811015610d1d57828181518110610cc457610cc46115b0565b602002602001015160036000868481518110610ce257610ce26115b0565b602002602001015181526020019081526020016000206000828254610d0791906115f7565b90915550610d169050816115dc565b9050610ca9565b505b6001600160a01b0384166107175760005b8351811015610848576000848281518110610d4d57610d4d6115b0565b602002602001015190506000848381518110610d6b57610d6b6115b0565b6020026020010151905060006003600084815260200190815260200160002054905081811015610dee5760405162461bcd60e51b815260206004820152602860248201527f455243313135353a206275726e20616d6f756e74206578636565647320746f74604482015267616c537570706c7960c01b6064820152608401610360565b60009283526003602052604090922091039055610e0a816115dc565b9050610d30565b6001600160a01b0384163b156107175760405163f23a6e6160e01b81526001600160a01b0385169063f23a6e6190610e5590899089908890889088906004016116cc565b6020604051808303816000875af1925050508015610e90575060408051601f3d908101601f19168201909252610e8d91810190611711565b60015b610f3d57610e9c61172e565b806308c379a01415610ed65750610eb161174a565b80610ebc5750610ed8565b8060405162461bcd60e51b8152600401610360919061110e565b505b60405162461bcd60e51b815260206004820152603460248201527f455243313135353a207472616e7366657220746f206e6f6e20455243313135356044820152732932b1b2b4bb32b91034b6b83632b6b2b73a32b960611b6064820152608401610360565b6001600160e01b0319811663f23a6e6160e01b146108485760405162461bcd60e51b8152600401610360906117d4565b6001600160a01b0384163b156107175760405163bc197c8160e01b81526001600160a01b0385169063bc197c8190610fb1908990899088908890889060040161181c565b6020604051808303816000875af1925050508015610fec575060408051601f3d908101601f19168201909252610fe991810190611711565b60015b610ff857610e9c61172e565b6001600160e01b0319811663bc197c8160e01b146108485760405162461bcd60e51b8152600401610360906117d4565b80356001600160a01b038116811461103f57600080fd5b919050565b6000806040838503121561105757600080fd5b61106083611028565b946020939093013593505050565b6001600160e01b03198116811461064457600080fd5b60006020828403121561109657600080fd5b81356110a18161106e565b9392505050565b6000602082840312156110ba57600080fd5b5035919050565b6000815180845260005b818110156110e7576020818501810151868301820152016110cb565b818111156110f9576000602083870101525b50601f01601f19169290920160200192915050565b6020815260006110a160208301846110c1565b6000806040838503121561113457600080fd5b50508035926020909101359150565b634e487b7160e01b600052604160045260246000fd5b601f8201601f1916810167ffffffffffffffff8111828210171561117f5761117f611143565b6040525050565b600067ffffffffffffffff8211156111a0576111a0611143565b5060051b60200190565b600082601f8301126111bb57600080fd5b813560206111c882611186565b6040516111d58282611159565b83815260059390931b85018201928281019150868411156111f557600080fd5b8286015b8481101561121057803583529183019183016111f9565b509695505050505050565b600082601f83011261122c57600080fd5b813567ffffffffffffffff81111561124657611246611143565b60405161125d601f8301601f191660200182611159565b81815284602083860101111561127257600080fd5b816020850160208301376000918101602001919091529392505050565b600080600080600060a086880312156112a757600080fd5b6112b086611028565b94506112be60208701611028565b9350604086013567ffffffffffffffff808211156112db57600080fd5b6112e789838a016111aa565b945060608801359150808211156112fd57600080fd5b61130989838a016111aa565b9350608088013591508082111561131f57600080fd5b5061132c8882890161121b565b9150509295509295909350565b6000806040838503121561134c57600080fd5b823567ffffffffffffffff8082111561136457600080fd5b818501915085601f83011261137857600080fd5b8135602061138582611186565b6040516113928282611159565b83815260059390931b85018201928281019150898411156113b257600080fd5b948201945b838610156113d7576113c886611028565b825294820194908201906113b7565b965050860135925050808211156113ed57600080fd5b506113fa858286016111aa565b9150509250929050565b600081518084526020808501945080840160005b8381101561143457815187529582019590820190600101611418565b509495945050505050565b6020815260006110a16020830184611404565b6000806040838503121561146557600080fd5b61146e83611028565b91506020830135801515811461148357600080fd5b809150509250929050565b600080604083850312156114a157600080fd5b6114aa83611028565b91506114b860208401611028565b90509250929050565b600080600080600060a086880312156114d957600080fd5b6114e286611028565b94506114f060208701611028565b93506040860135925060608601359150608086013567ffffffffffffffff81111561151a57600080fd5b61132c8882890161121b565b600181811c9082168061153a57607f821691505b6020821081141561155b57634e487b7160e01b600052602260045260246000fd5b50919050565b6020808252602f908201527f455243313135353a2063616c6c6572206973206e6f7420746f6b656e206f776e60408201526e195c881b9bdc88185c1c1c9bdd9959608a1b606082015260800190565b634e487b7160e01b600052603260045260246000fd5b634e487b7160e01b600052601160045260246000fd5b60006000198214156115f0576115f06115c6565b5060010190565b6000821982111561160a5761160a6115c6565b500190565b60208082526025908201527f455243313135353a207472616e7366657220746f20746865207a65726f206164604082015264647265737360d81b606082015260800190565b6020808252602a908201527f455243313135353a20696e73756666696369656e742062616c616e636520666f60408201526939103a3930b739b332b960b11b606082015260800190565b6040815260006116b16040830185611404565b82810360208401526116c38185611404565b95945050505050565b6001600160a01b03868116825285166020820152604081018490526060810183905260a060808201819052600090611706908301846110c1565b979650505050505050565b60006020828403121561172357600080fd5b81516110a18161106e565b600060033d11156117475760046000803e5060005160e01c5b90565b600060443d10156117585790565b6040516003193d81016004833e81513d67ffffffffffffffff816024840111818411171561178857505050505090565b82850191508151818111156117a05750505050505090565b843d87010160208285010111156117ba5750505050505090565b6117c960208286010187611159565b509095945050505050565b60208082526028908201527f455243313135353a204552433131353552656365697665722072656a656374656040820152676420746f6b656e7360c01b606082015260800190565b6001600160a01b0386811682528516602082015260a06040820181905260009061184890830186611404565b828103606084015261185a8186611404565b9050828103608084015261186e81856110c1565b9897505050505050505056fea26469706673582212200d523fa1e81b19c2ec30b8dac6ba98d78c83616989d6ca1bef5056a8c00b008364736f6c634300080a0033",
    "linkReferences": {}
  },
  "methodIdentifiers": {
    "BOOTS()": "cacbff98",
    "HELMET()": "9fab9a94",
    "POTIONS()": "fa31a5e2",
    "SHIELD()": "5b2725ed",
    "SWORDS()": "c0be5152",
    "balanceOf(address,uint256)": "00fdd58e",
    "balanceOfBatch(address[],uint256[])": "4e1273f4",
    "exists(uint256)": "4f558e79",
    "isApprovedForAll(address,address)": "e985e9c5",
    "mint(uint256,uint256)": "1b2ef1ca",
    "mintBoots(uint256)": "64f69dca",
    "mintHelmet(uint256)": "cfac891b",
    "mintShield(uint256)": "d4a21537",
    "mintSword(uint256)": "b69442f5",
    "safeBatchTransferFrom(address,address,uint256[],uint256[],bytes)": "2eb2c2d6",
    "safeTransferFrom(address,address,uint256,uint256,bytes)": "f242432a",
    "setApprovalForAll(address,bool)": "a22cb465",
    "supportsInterface(bytes4)": "01ffc9a7",
    "totalSupply(uint256)": "bd85b039",
    "uri(uint256)": "0e89341c"
  },
  "id": 1
}