{
  "abi": [
    {
      "inputs": [
        {
          "internalType": "string",
          "name": "name_",
          "type": "string"
        },
        {
          "internalType": "string",
          "name": "symbol_",
          "type": "string"
        }
      ],
      "stateMutability": "nonpayable",
      "type": "constructor"
    },
    {
      "anonymous": false,
      "inputs": [
        {
          "indexed": true,
          "internalType": "address",
          "name": "owner",
          "type": "address"
        },
        {
          "indexed": true,
          "internalType": "address",
          "name": "approved",
          "type": "address"
        },
        {
          "indexed": true,
          "internalType": "uint256",
          "name": "tokenId",
          "type": "uint256"
        }
      ],
      "name": "Approval",
      "type": "event"
    },
    {
      "anonymous": false,
      "inputs": [
        {
          "indexed": true,
          "internalType": "address",
          "name": "owner",
          "type": "address"
        },
        {
          "indexed": true,
          "internalType": "address",
          "name": "operator",
          "type": "address"
        },
        {
          "indexed": false,
          "internalType": "bool",
          "name": "approved",
          "type": "bool"
        }
      ],
      "name": "ApprovalForAll",
      "type": "event"
    },
    {
      "anonymous": false,
      "inputs": [
        {
          "indexed": true,
          "internalType": "address",
          "name": "from",
          "type": "address"
        },
        {
          "indexed": true,
          "internalType": "address",
          "name": "to",
          "type": "address"
        },
        {
          "indexed": true,
          "internalType": "uint256",
          "name": "tokenId",
          "type": "uint256"
        }
      ],
      "name": "Transfer",
      "type": "event"
    },
    {
      "inputs": [
        {
          "internalType": "address",
          "name": "to",
          "type": "address"
        },
        {
          "internalType": "uint256",
          "name": "tokenId",
          "type": "uint256"
        }
      ],
      "name": "approve",
      "outputs": [],
      "stateMutability": "nonpayable",
      "type": "function"
    },
    {
      "inputs": [
        {
          "internalType": "address",
          "name": "owner",
          "type": "address"
        }
      ],
      "name": "balanceOf",
      "outputs": [
        {
          "internalType": "uint256",
          "name": "",
          "type": "uint256"
        }
      ],
      "stateMutability": "view",
      "type": "function"
    },
    {
      "inputs": [
        {
          "internalType": "uint256",
          "name": "tokenId",
          "type": "uint256"
        }
      ],
      "name": "getApproved",
      "outputs": [
        {
          "internalType": "address",
          "name": "",
          "type": "address"
        }
      ],
      "stateMutability": "view",
      "type": "function"
    },
    {
      "inputs": [
        {
          "internalType": "address",
          "name": "owner",
          "type": "address"
        },
        {
          "internalType": "address",
          "name": "operator",
          "type": "address"
        }
      ],
      "name": "isApprovedForAll",
      "outputs": [
        {
          "internalType": "bool",
          "name": "",
          "type": "bool"
        }
      ],
      "stateMutability": "view",
      "type": "function"
    },
    {
      "inputs": [],
      "name": "name",
      "outputs": [
        {
          "internalType": "string",
          "name": "",
          "type": "string"
        }
      ],
      "stateMutability": "view",
      "type": "function"
    },
    {
      "inputs": [
        {
          "internalType": "uint256",
          "name": "tokenId",
          "type": "uint256"
        }
      ],
      "name": "ownerOf",
      "outputs": [
        {
          "internalType": "address",
          "name": "",
          "type": "address"
        }
      ],
      "stateMutability": "view",
      "type": "function"
    },
    {
      "inputs": [
        {
          "internalType": "address",
          "name": "from",
          "type": "address"
        },
        {
          "internalType": "address",
          "name": "to",
          "type": "address"
        },
        {
          "internalType": "uint256",
          "name": "tokenId",
          "type": "uint256"
        }
      ],
      "name": "safeTransferFrom",
      "outputs": [],
      "stateMutability": "nonpayable",
      "type": "function"
    },
    {
      "inputs": [
        {
          "internalType": "address",
          "name": "from",
          "type": "address"
        },
        {
          "internalType": "address",
          "name": "to",
          "type": "address"
        },
        {
          "internalType": "uint256",
          "name": "tokenId",
          "type": "uint256"
        },
        {
          "internalType": "bytes",
          "name": "data",
          "type": "bytes"
        }
      ],
      "name": "safeTransferFrom",
      "outputs": [],
      "stateMutability": "nonpayable",
      "type": "function"
    },
    {
      "inputs": [
        {
          "internalType": "address",
          "name": "operator",
          "type": "address"
        },
        {
          "internalType": "bool",
          "name": "approved",
          "type": "bool"
        }
      ],
      "name": "setApprovalForAll",
      "outputs": [],
      "stateMutability": "nonpayable",
      "type": "function"
    },
    {
      "inputs": [],
      "name": "symbol",
      "outputs": [
        {
          "internalType": "string",
          "name": "",
          "type": "string"
        }
      ],
      "stateMutability": "view",
      "type": "function"
    },
    {
      "inputs": [
        {
          "internalType": "uint256",
          "name": "tokenId",
          "type": "uint256"
        }
      ],
      "name": "tokenURI",
      "outputs": [
        {
          "internalType": "string",
          "name": "",
          "type": "string"
        }
      ],
      "stateMutability": "view",
      "type": "function"
    },
    {
      "inputs": [
        {
          "internalType": "address",
          "name": "from",
          "type": "address"
        },
        {
          "internalType": "address",
          "name": "to",
          "type": "address"
        },
        {
          "internalType": "uint256",
          "name": "tokenId",
          "type": "uint256"
        }
      ],
      "name": "transferFrom",
      "outputs": [],
      "stateMutability": "nonpayable",
      "type": "function"
    }
  ],
  "bytecode": {
    "object": "0x60806040523480156200001157600080fd5b506040516200132c3803806200132c8339810160408190526200003491620001db565b81516200004990600090602085019062000068565b5080516200005f90600190602084019062000068565b50505062000282565b828054620000769062000245565b90600052602060002090601f0160209004810192826200009a5760008555620000e5565b82601f10620000b557805160ff1916838001178555620000e5565b82800160010185558215620000e5579182015b82811115620000e5578251825591602001919060010190620000c8565b50620000f3929150620000f7565b5090565b5b80821115620000f35760008155600101620000f8565b634e487b7160e01b600052604160045260246000fd5b600082601f8301126200013657600080fd5b81516001600160401b03808211156200015357620001536200010e565b604051601f8301601f19908116603f011681019082821181831017156200017e576200017e6200010e565b816040528381526020925086838588010111156200019b57600080fd5b600091505b83821015620001bf5785820183015181830184015290820190620001a0565b83821115620001d15760008385830101525b9695505050505050565b60008060408385031215620001ef57600080fd5b82516001600160401b03808211156200020757600080fd5b620002158683870162000124565b935060208501519150808211156200022c57600080fd5b506200023b8582860162000124565b9150509250929050565b600181811c908216806200025a57607f821691505b602082108114156200027c57634e487b7160e01b600052602260045260246000fd5b50919050565b61109a80620002926000396000f3fe608060405234801561001057600080fd5b50600436106100b45760003560e01c806370a082311161007157806370a082311461015057806395d89b4114610171578063a22cb46514610179578063b88d4fde1461018c578063c87b56dd1461019f578063e985e9c5146101b257600080fd5b806306fdde03146100b9578063081812fc146100d7578063095ea7b31461010257806323b872dd1461011757806342842e0e1461012a5780636352211e1461013d575b600080fd5b6100c16101fe565b6040516100ce9190610c15565b60405180910390f35b6100ea6100e5366004610c28565b610290565b6040516001600160a01b0390911681526020016100ce565b610115610110366004610c5d565b6102b7565b005b610115610125366004610c87565b6103d2565b610115610138366004610c87565b610403565b6100ea61014b366004610c28565b61041e565b61016361015e366004610cc3565b610484565b6040519081526020016100ce565b6100c161050a565b610115610187366004610cde565b610519565b61011561019a366004610d30565b610528565b6100c16101ad366004610c28565b610560565b6101ee6101c0366004610e0c565b6001600160a01b03918216600090815260056020908152604080832093909416825291909152205460ff1690565b60405190151581526020016100ce565b60606000805461020d90610e3f565b80601f016020809104026020016040519081016040528092919081815260200182805461023990610e3f565b80156102865780601f1061025b57610100808354040283529160200191610286565b820191906000526020600020905b81548152906001019060200180831161026957829003601f168201915b5050505050905090565b600061029b826105d4565b506000908152600460205260409020546001600160a01b031690565b60006102c28261041e565b9050806001600160a01b0316836001600160a01b031614156103355760405162461bcd60e51b815260206004820152602160248201527f4552433732313a20617070726f76616c20746f2063757272656e74206f776e656044820152603960f91b60648201526084015b60405180910390fd5b336001600160a01b0382161480610351575061035181336101c0565b6103c35760405162461bcd60e51b815260206004820152603e60248201527f4552433732313a20617070726f76652063616c6c6572206973206e6f7420746f60448201527f6b656e206f776e6572206e6f7220617070726f76656420666f7220616c6c0000606482015260840161032c565b6103cd8383610636565b505050565b6103dc33826106a4565b6103f85760405162461bcd60e51b815260040161032c90610e7a565b6103cd838383610723565b6103cd83838360405180602001604052806000815250610528565b6000818152600260205260408120546001600160a01b03168061047e5760405162461bcd60e51b8152602060048201526018602482015277115490cdcc8c4e881a5b9d985b1a59081d1bdad95b88125160421b604482015260640161032c565b92915050565b60006001600160a01b0382166104ee5760405162461bcd60e51b815260206004820152602960248201527f4552433732313a2061646472657373207a65726f206973206e6f7420612076616044820152683634b21037bbb732b960b91b606482015260840161032c565b506001600160a01b031660009081526003602052604090205490565b60606001805461020d90610e3f565b6105243383836108bf565b5050565b61053233836106a4565b61054e5760405162461bcd60e51b815260040161032c90610e7a565b61055a8484848461098e565b50505050565b606061056b826105d4565b600061058260408051602081019091526000815290565b905060008151116105a257604051806020016040528060008152506105cd565b806105ac846109c1565b6040516020016105bd929190610ec8565b6040516020818303038152906040525b9392505050565b6000818152600260205260409020546001600160a01b03166106335760405162461bcd60e51b8152602060048201526018602482015277115490cdcc8c4e881a5b9d985b1a59081d1bdad95b88125160421b604482015260640161032c565b50565b600081815260046020526040902080546001600160a01b0319166001600160a01b038416908117909155819061066b8261041e565b6001600160a01b03167f8c5be1e5ebec7d5bd14f71427d1e84f3dd0314c0f7b2291e5b200ac8c7c3b92560405160405180910390a45050565b6000806106b08361041e565b9050806001600160a01b0316846001600160a01b031614806106f757506001600160a01b0380821660009081526005602090815260408083209388168352929052205460ff165b8061071b5750836001600160a01b031661071084610290565b6001600160a01b0316145b949350505050565b826001600160a01b03166107368261041e565b6001600160a01b03161461079a5760405162461bcd60e51b815260206004820152602560248201527f4552433732313a207472616e736665722066726f6d20696e636f72726563742060448201526437bbb732b960d91b606482015260840161032c565b6001600160a01b0382166107fc5760405162461bcd60e51b8152602060048201526024808201527f4552433732313a207472616e7366657220746f20746865207a65726f206164646044820152637265737360e01b606482015260840161032c565b610807600082610636565b6001600160a01b0383166000908152600360205260408120805460019290610830908490610f0d565b90915550506001600160a01b038216600090815260036020526040812080546001929061085e908490610f24565b909155505060008181526002602052604080822080546001600160a01b0319166001600160a01b0386811691821790925591518493918716917fddf252ad1be2c89b69c2b068fc378daa952ba7f163c4a11628f55a4df523b3ef91a4505050565b816001600160a01b0316836001600160a01b031614156109215760405162461bcd60e51b815260206004820152601960248201527f4552433732313a20617070726f766520746f2063616c6c657200000000000000604482015260640161032c565b6001600160a01b03838116600081815260056020908152604080832094871680845294825291829020805460ff191686151590811790915591519182527f17307eab39ab6107e8899845ad3d59bd9653f200f220920489ca2b5937696c31910160405180910390a3505050565b610999848484610723565b6109a584848484610abf565b61055a5760405162461bcd60e51b815260040161032c90610f3c565b6060816109e55750506040805180820190915260018152600360fc1b602082015290565b8160005b8115610a0f57806109f981610f8e565b9150610a089050600a83610fbf565b91506109e9565b60008167ffffffffffffffff811115610a2a57610a2a610d1a565b6040519080825280601f01601f191660200182016040528015610a54576020820181803683370190505b5090505b841561071b57610a69600183610f0d565b9150610a76600a86610fd3565b610a81906030610f24565b60f81b818381518110610a9657610a96610fe7565b60200101906001600160f81b031916908160001a905350610ab8600a86610fbf565b9450610a58565b60006001600160a01b0384163b15610bb257604051630a85bd0160e11b81526001600160a01b0385169063150b7a0290610b03903390899088908890600401610ffd565b6020604051808303816000875af1925050508015610b3e575060408051601f3d908101601f19168201909252610b3b9181019061103a565b60015b610b98573d808015610b6c576040519150601f19603f3d011682016040523d82523d6000602084013e610b71565b606091505b508051610b905760405162461bcd60e51b815260040161032c90610f3c565b805181602001fd5b6001600160e01b031916630a85bd0160e11b14905061071b565b506001949350505050565b60005b83811015610bd8578181015183820152602001610bc0565b8381111561055a5750506000910152565b60008151808452610c01816020860160208601610bbd565b601f01601f19169290920160200192915050565b6020815260006105cd6020830184610be9565b600060208284031215610c3a57600080fd5b5035919050565b80356001600160a01b0381168114610c5857600080fd5b919050565b60008060408385031215610c7057600080fd5b610c7983610c41565b946020939093013593505050565b600080600060608486031215610c9c57600080fd5b610ca584610c41565b9250610cb360208501610c41565b9150604084013590509250925092565b600060208284031215610cd557600080fd5b6105cd82610c41565b60008060408385031215610cf157600080fd5b610cfa83610c41565b915060208301358015158114610d0f57600080fd5b809150509250929050565b634e487b7160e01b600052604160045260246000fd5b60008060008060808587031215610d4657600080fd5b610d4f85610c41565b9350610d5d60208601610c41565b925060408501359150606085013567ffffffffffffffff80821115610d8157600080fd5b818701915087601f830112610d9557600080fd5b813581811115610da757610da7610d1a565b604051601f8201601f19908116603f01168101908382118183101715610dcf57610dcf610d1a565b816040528281528a6020848701011115610de857600080fd5b82602086016020830137600060208483010152809550505050505092959194509250565b60008060408385031215610e1f57600080fd5b610e2883610c41565b9150610e3660208401610c41565b90509250929050565b600181811c90821680610e5357607f821691505b60208210811415610e7457634e487b7160e01b600052602260045260246000fd5b50919050565b6020808252602e908201527f4552433732313a2063616c6c6572206973206e6f7420746f6b656e206f776e6560408201526d1c881b9bdc88185c1c1c9bdd995960921b606082015260800190565b60008351610eda818460208801610bbd565b835190830190610eee818360208801610bbd565b01949350505050565b634e487b7160e01b600052601160045260246000fd5b600082821015610f1f57610f1f610ef7565b500390565b60008219821115610f3757610f37610ef7565b500190565b60208082526032908201527f4552433732313a207472616e7366657220746f206e6f6e20455243373231526560408201527131b2b4bb32b91034b6b83632b6b2b73a32b960711b606082015260800190565b6000600019821415610fa257610fa2610ef7565b5060010190565b634e487b7160e01b600052601260045260246000fd5b600082610fce57610fce610fa9565b500490565b600082610fe257610fe2610fa9565b500690565b634e487b7160e01b600052603260045260246000fd5b6001600160a01b038581168252841660208201526040810183905260806060820181905260009061103090830184610be9565b9695505050505050565b60006020828403121561104c57600080fd5b81516001600160e01b0319811681146105cd57600080fdfea264697066735822122039b9cd1a46f23b60a341875347060e023e0cd9736dca689ea90eaf254bcdca6364736f6c634300080a0033",
    "linkReferences": {}
  },
  "methodIdentifiers": {
    "approve(address,uint256)": "095ea7b3",
    "balanceOf(address)": "70a08231",
    "getApproved(uint256)": "081812fc",
    "isApprovedForAll(address,address)": "e985e9c5",
    "name()": "06fdde03",
    "ownerOf(uint256)": "6352211e",
    "safeTransferFrom(address,address,uint256)": "42842e0e",
    "safeTransferFrom(address,address,uint256,bytes)": "b88d4fde",
    "setApprovalForAll(address,bool)": "a22cb465",
    "symbol()": "95d89b41",
    "tokenURI(uint256)": "c87b56dd",
    "transferFrom(address,address,uint256)": "23b872dd"
  },
  "id": 5
}