{
  "abi": [
    {
      "inputs": [],
      "stateMutability": "nonpayable",
      "type": "constructor"
    },
    {
      "anonymous": false,
      "inputs": [
        {
          "indexed": true,
          "internalType": "address",
          "name": "owner",
          "type": "address"
        },
        {
          "indexed": true,
          "internalType": "address",
          "name": "approved",
          "type": "address"
        },
        {
          "indexed": true,
          "internalType": "uint256",
          "name": "tokenId",
          "type": "uint256"
        }
      ],
      "name": "Approval",
      "type": "event"
    },
    {
      "anonymous": false,
      "inputs": [
        {
          "indexed": true,
          "internalType": "address",
          "name": "owner",
          "type": "address"
        },
        {
          "indexed": true,
          "internalType": "address",
          "name": "operator",
          "type": "address"
        },
        {
          "indexed": false,
          "internalType": "bool",
          "name": "approved",
          "type": "bool"
        }
      ],
      "name": "ApprovalForAll",
      "type": "event"
    },
    {
      "anonymous": false,
      "inputs": [
        {
          "indexed": true,
          "internalType": "address",
          "name": "from",
          "type": "address"
        },
        {
          "indexed": true,
          "internalType": "address",
          "name": "to",
          "type": "address"
        },
        {
          "indexed": true,
          "internalType": "uint256",
          "name": "tokenId",
          "type": "uint256"
        }
      ],
      "name": "Transfer",
      "type": "event"
    },
    {
      "inputs": [
        {
          "internalType": "address",
          "name": "to",
          "type": "address"
        },
        {
          "internalType": "uint256",
          "name": "tokenId",
          "type": "uint256"
        }
      ],
      "name": "approve",
      "outputs": [],
      "stateMutability": "nonpayable",
      "type": "function"
    },
    {
      "inputs": [
        {
          "internalType": "address",
          "name": "owner",
          "type": "address"
        }
      ],
      "name": "balanceOf",
      "outputs": [
        {
          "internalType": "uint256",
          "name": "",
          "type": "uint256"
        }
      ],
      "stateMutability": "view",
      "type": "function"
    },
    {
      "inputs": [
        {
          "internalType": "uint256",
          "name": "tokenId",
          "type": "uint256"
        }
      ],
      "name": "getApproved",
      "outputs": [
        {
          "internalType": "address",
          "name": "",
          "type": "address"
        }
      ],
      "stateMutability": "view",
      "type": "function"
    },
    {
      "inputs": [
        {
          "internalType": "address",
          "name": "owner",
          "type": "address"
        },
        {
          "internalType": "address",
          "name": "operator",
          "type": "address"
        }
      ],
      "name": "isApprovedForAll",
      "outputs": [
        {
          "internalType": "bool",
          "name": "",
          "type": "bool"
        }
      ],
      "stateMutability": "view",
      "type": "function"
    },
    {
      "inputs": [
        {
          "internalType": "uint256",
          "name": "_amount",
          "type": "uint256"
        }
      ],
      "name": "mint",
      "outputs": [],
      "stateMutability": "nonpayable",
      "type": "function"
    },
    {
      "inputs": [],
      "name": "name",
      "outputs": [
        {
          "internalType": "string",
          "name": "",
          "type": "string"
        }
      ],
      "stateMutability": "view",
      "type": "function"
    },
    {
      "inputs": [
        {
          "internalType": "uint256",
          "name": "tokenId",
          "type": "uint256"
        }
      ],
      "name": "ownerOf",
      "outputs": [
        {
          "internalType": "address",
          "name": "",
          "type": "address"
        }
      ],
      "stateMutability": "view",
      "type": "function"
    },
    {
      "inputs": [],
      "name": "reveal",
      "outputs": [],
      "stateMutability": "nonpayable",
      "type": "function"
    },
    {
      "inputs": [
        {
          "internalType": "address",
          "name": "from",
          "type": "address"
        },
        {
          "internalType": "address",
          "name": "to",
          "type": "address"
        },
        {
          "internalType": "uint256",
          "name": "tokenId",
          "type": "uint256"
        }
      ],
      "name": "safeTransferFrom",
      "outputs": [],
      "stateMutability": "nonpayable",
      "type": "function"
    },
    {
      "inputs": [
        {
          "internalType": "address",
          "name": "from",
          "type": "address"
        },
        {
          "internalType": "address",
          "name": "to",
          "type": "address"
        },
        {
          "internalType": "uint256",
          "name": "tokenId",
          "type": "uint256"
        },
        {
          "internalType": "bytes",
          "name": "data",
          "type": "bytes"
        }
      ],
      "name": "safeTransferFrom",
      "outputs": [],
      "stateMutability": "nonpayable",
      "type": "function"
    },
    {
      "inputs": [
        {
          "internalType": "address",
          "name": "operator",
          "type": "address"
        },
        {
          "internalType": "bool",
          "name": "approved",
          "type": "bool"
        }
      ],
      "name": "setApprovalForAll",
      "outputs": [],
      "stateMutability": "nonpayable",
      "type": "function"
    },
    {
      "inputs": [
        {
          "internalType": "bytes4",
          "name": "interfaceId",
          "type": "bytes4"
        }
      ],
      "name": "supportsInterface",
      "outputs": [
        {
          "internalType": "bool",
          "name": "",
          "type": "bool"
        }
      ],
      "stateMutability": "view",
      "type": "function"
    },
    {
      "inputs": [],
      "name": "symbol",
      "outputs": [
        {
          "internalType": "string",
          "name": "",
          "type": "string"
        }
      ],
      "stateMutability": "view",
      "type": "function"
    },
    {
      "inputs": [
        {
          "internalType": "uint256",
          "name": "index",
          "type": "uint256"
        }
      ],
      "name": "tokenByIndex",
      "outputs": [
        {
          "internalType": "uint256",
          "name": "",
          "type": "uint256"
        }
      ],
      "stateMutability": "view",
      "type": "function"
    },
    {
      "inputs": [
        {
          "internalType": "address",
          "name": "owner",
          "type": "address"
        },
        {
          "internalType": "uint256",
          "name": "index",
          "type": "uint256"
        }
      ],
      "name": "tokenOfOwnerByIndex",
      "outputs": [
        {
          "internalType": "uint256",
          "name": "",
          "type": "uint256"
        }
      ],
      "stateMutability": "view",
      "type": "function"
    },
    {
      "inputs": [
        {
          "internalType": "uint256",
          "name": "tokenId",
          "type": "uint256"
        }
      ],
      "name": "tokenURI",
      "outputs": [
        {
          "internalType": "string",
          "name": "",
          "type": "string"
        }
      ],
      "stateMutability": "view",
      "type": "function"
    },
    {
      "inputs": [],
      "name": "totalSupply",
      "outputs": [
        {
          "internalType": "uint256",
          "name": "",
          "type": "uint256"
        }
      ],
      "stateMutability": "view",
      "type": "function"
    },
    {
      "inputs": [
        {
          "internalType": "address",
          "name": "from",
          "type": "address"
        },
        {
          "internalType": "address",
          "name": "to",
          "type": "address"
        },
        {
          "internalType": "uint256",
          "name": "tokenId",
          "type": "uint256"
        }
      ],
      "name": "transferFrom",
      "outputs": [],
      "stateMutability": "nonpayable",
      "type": "function"
    }
  ],
  "bytecode": {
    "object": "0x60806040523480156200001157600080fd5b5060408051808201825260078152660dcc8c5d195cdd60ca1b60208083019182528351808501909452600384526237323160e81b9084015281519192916200005c9160009162000736565b5080516200007290600190602084019062000736565b50505062000090336200008a620000b460201b60201c565b620000ba565b6200009f336200008a60085490565b620000ae336200008a60085490565b6200093e565b60085490565b620000dc828260405180602001604052806000815250620000e060201b60201c565b5050565b620000ec83836200015c565b620000fb6000848484620002b2565b620001575760405162461bcd60e51b815260206004820152603260248201526000805160206200202c83398151915260448201527131b2b4bb32b91034b6b83632b6b2b73a32b960711b60648201526084015b60405180910390fd5b505050565b6001600160a01b038216620001b45760405162461bcd60e51b815260206004820181905260248201527f4552433732313a206d696e7420746f20746865207a65726f206164647265737360448201526064016200014e565b6000818152600260205260409020546001600160a01b0316156200021b5760405162461bcd60e51b815260206004820152601c60248201527f4552433732313a20746f6b656e20616c7265616479206d696e7465640000000060448201526064016200014e565b62000229600083836200040b565b6001600160a01b038216600090815260036020526040812080546001929062000254908490620007f2565b909155505060008181526002602052604080822080546001600160a01b0319166001600160a01b03861690811790915590518392907fddf252ad1be2c89b69c2b068fc378daa952ba7f163c4a11628f55a4df523b3ef908290a45050565b6000620002d3846001600160a01b0316620004e760201b620008621760201c565b15620003ff57604051630a85bd0160e11b81526001600160a01b0385169063150b7a02906200030d9033908990889088906004016200080d565b6020604051808303816000875af19250505080156200034b575060408051601f3d908101601f19168201909252620003489181019062000888565b60015b620003e4573d8080156200037c576040519150601f19603f3d011682016040523d82523d6000602084013e62000381565b606091505b508051620003dc5760405162461bcd60e51b815260206004820152603260248201526000805160206200202c83398151915260448201527131b2b4bb32b91034b6b83632b6b2b73a32b960711b60648201526084016200014e565b805181602001fd5b6001600160e01b031916630a85bd0160e11b14905062000403565b5060015b949350505050565b620004238383836200015760201b620004b81760201c565b6001600160a01b03831662000481576200047b81600880546000838152600960205260408120829055600182018355919091527ff3f7a9fe364faab93b216da50a3214154f22a0a2b415b23a84c8169e8b636ee30155565b620004a7565b816001600160a01b0316836001600160a01b031614620004a757620004a78382620004f6565b6001600160a01b038216620004c1576200015781620005a3565b826001600160a01b0316826001600160a01b03161462000157576200015782826200065d565b6001600160a01b03163b151590565b600060016200051084620006ae60201b620006921760201c565b6200051c9190620008bb565b60008381526007602052604090205490915080821462000570576001600160a01b03841660009081526006602090815260408083208584528252808320548484528184208190558352600790915290208190555b5060009182526007602090815260408084208490556001600160a01b039094168352600681528383209183525290812055565b600854600090620005b790600190620008bb565b60008381526009602052604081205460088054939450909284908110620005e257620005e2620008d5565b906000526020600020015490508060088381548110620006065762000606620008d5565b6000918252602080832090910192909255828152600990915260408082208490558582528120556008805480620006415762000641620008eb565b6001900381819060005260206000200160009055905550505050565b60006200067583620006ae60201b620006921760201c565b6001600160a01b039093166000908152600660209081526040808320868452825280832085905593825260079052919091209190915550565b60006001600160a01b0382166200071a5760405162461bcd60e51b815260206004820152602960248201527f4552433732313a2061646472657373207a65726f206973206e6f7420612076616044820152683634b21037bbb732b960b91b60648201526084016200014e565b506001600160a01b031660009081526003602052604090205490565b828054620007449062000901565b90600052602060002090601f016020900481019282620007685760008555620007b3565b82601f106200078357805160ff1916838001178555620007b3565b82800160010185558215620007b3579182015b82811115620007b357825182559160200191906001019062000796565b50620007c1929150620007c5565b5090565b5b80821115620007c15760008155600101620007c6565b634e487b7160e01b600052601160045260246000fd5b60008219821115620008085762000808620007dc565b500190565b600060018060a01b038087168352602081871681850152856040850152608060608501528451915081608085015260005b828110156200085c5785810182015185820160a0015281016200083e565b828111156200086f57600060a084870101525b5050601f01601f19169190910160a00195945050505050565b6000602082840312156200089b57600080fd5b81516001600160e01b031981168114620008b457600080fd5b9392505050565b600082821015620008d057620008d0620007dc565b500390565b634e487b7160e01b600052603260045260246000fd5b634e487b7160e01b600052603160045260246000fd5b600181811c908216806200091657607f821691505b602082108114156200093857634e487b7160e01b600052602260045260246000fd5b50919050565b6116de806200094e6000396000f3fe608060405234801561001057600080fd5b50600436106101165760003560e01c80636352211e116100a2578063a22cb46511610071578063a22cb46514610237578063a475b5dd1461024a578063b88d4fde1461025c578063c87b56dd1461026f578063e985e9c51461028257600080fd5b80636352211e146101f657806370a082311461020957806395d89b411461021c578063a0712d681461022457600080fd5b806318160ddd116100e957806318160ddd1461019857806323b872dd146101aa5780632f745c59146101bd57806342842e0e146101d05780634f6ccce7146101e357600080fd5b806301ffc9a71461011b57806306fdde0314610143578063081812fc14610158578063095ea7b314610183575b600080fd5b61012e6101293660046111cf565b6102be565b60405190151581526020015b60405180910390f35b61014b6102e9565b60405161013a919061124b565b61016b61016636600461125e565b61037b565b6040516001600160a01b03909116815260200161013a565b610196610191366004611293565b6103a2565b005b6008545b60405190815260200161013a565b6101966101b83660046112bd565b6104bd565b61019c6101cb366004611293565b6104ee565b6101966101de3660046112bd565b610584565b61019c6101f136600461125e565b61059f565b61016b61020436600461125e565b610632565b61019c6102173660046112f9565b610692565b61014b610718565b61019661023236600461125e565b610727565b610196610245366004611314565b61075a565b610196600a805460ff19166001179055565b61019661026a366004611366565b610765565b61014b61027d36600461125e565b61079d565b61012e610290366004611442565b6001600160a01b03918216600090815260056020908152604080832093909416825291909152205460ff1690565b60006001600160e01b0319821663780e9d6360e01b14806102e357506102e382610871565b92915050565b6060600080546102f890611475565b80601f016020809104026020016040519081016040528092919081815260200182805461032490611475565b80156103715780601f1061034657610100808354040283529160200191610371565b820191906000526020600020905b81548152906001019060200180831161035457829003601f168201915b5050505050905090565b6000610386826108c1565b506000908152600460205260409020546001600160a01b031690565b60006103ad82610632565b9050806001600160a01b0316836001600160a01b031614156104205760405162461bcd60e51b815260206004820152602160248201527f4552433732313a20617070726f76616c20746f2063757272656e74206f776e656044820152603960f91b60648201526084015b60405180910390fd5b336001600160a01b038216148061043c575061043c8133610290565b6104ae5760405162461bcd60e51b815260206004820152603e60248201527f4552433732313a20617070726f76652063616c6c6572206973206e6f7420746f60448201527f6b656e206f776e6572206e6f7220617070726f76656420666f7220616c6c00006064820152608401610417565b6104b88383610923565b505050565b6104c73382610991565b6104e35760405162461bcd60e51b8152600401610417906114b0565b6104b8838383610a0f565b60006104f983610692565b821061055b5760405162461bcd60e51b815260206004820152602b60248201527f455243373231456e756d657261626c653a206f776e657220696e646578206f7560448201526a74206f6620626f756e647360a81b6064820152608401610417565b506001600160a01b03919091166000908152600660209081526040808320938352929052205490565b6104b883838360405180602001604052806000815250610765565b60006105aa60085490565b821061060d5760405162461bcd60e51b815260206004820152602c60248201527f455243373231456e756d657261626c653a20676c6f62616c20696e646578206f60448201526b7574206f6620626f756e647360a01b6064820152608401610417565b60088281548110610620576106206114fe565b90600052602060002001549050919050565b6000818152600260205260408120546001600160a01b0316806102e35760405162461bcd60e51b8152602060048201526018602482015277115490cdcc8c4e881a5b9d985b1a59081d1bdad95b88125160421b6044820152606401610417565b60006001600160a01b0382166106fc5760405162461bcd60e51b815260206004820152602960248201527f4552433732313a2061646472657373207a65726f206973206e6f7420612076616044820152683634b21037bbb732b960b91b6064820152608401610417565b506001600160a01b031660009081526003602052604090205490565b6060600180546102f890611475565b60005b81811015610756576107443361073f60085490565b610bb6565b8061074e8161152a565b91505061072a565b5050565b610756338383610bd0565b61076f3383610991565b61078b5760405162461bcd60e51b8152600401610417906114b0565b61079784848484610c9f565b50505050565b60606107a8826108c1565b600a5460609060ff16156107e557506040805180820190915260128152713a32b9ba2fb6b2ba30b230ba30973539b7b760711b602082015261080d565b5060408051808201909152600f81526e3ab73932bb32b0b632b2173539b7b760891b60208201525b6000610817610cd2565b90506000815111610837576040518060200160405280600081525061085a565b808260405160200161084a929190611545565b6040516020818303038152906040525b949350505050565b6001600160a01b03163b151590565b60006001600160e01b031982166380ac58cd60e01b14806108a257506001600160e01b03198216635b5e139f60e01b145b806102e357506301ffc9a760e01b6001600160e01b03198316146102e3565b6000818152600260205260409020546001600160a01b03166109205760405162461bcd60e51b8152602060048201526018602482015277115490cdcc8c4e881a5b9d985b1a59081d1bdad95b88125160421b6044820152606401610417565b50565b600081815260046020526040902080546001600160a01b0319166001600160a01b038416908117909155819061095882610632565b6001600160a01b03167f8c5be1e5ebec7d5bd14f71427d1e84f3dd0314c0f7b2291e5b200ac8c7c3b92560405160405180910390a45050565b60008061099d83610632565b9050806001600160a01b0316846001600160a01b031614806109e457506001600160a01b0380821660009081526005602090815260408083209388168352929052205460ff165b8061085a5750836001600160a01b03166109fd8461037b565b6001600160a01b031614949350505050565b826001600160a01b0316610a2282610632565b6001600160a01b031614610a865760405162461bcd60e51b815260206004820152602560248201527f4552433732313a207472616e736665722066726f6d20696e636f72726563742060448201526437bbb732b960d91b6064820152608401610417565b6001600160a01b038216610ae85760405162461bcd60e51b8152602060048201526024808201527f4552433732313a207472616e7366657220746f20746865207a65726f206164646044820152637265737360e01b6064820152608401610417565b610af3838383610cf2565b610afe600082610923565b6001600160a01b0383166000908152600360205260408120805460019290610b27908490611574565b90915550506001600160a01b0382166000908152600360205260408120805460019290610b5590849061158b565b909155505060008181526002602052604080822080546001600160a01b0319166001600160a01b0386811691821790925591518493918716917fddf252ad1be2c89b69c2b068fc378daa952ba7f163c4a11628f55a4df523b3ef91a4505050565b610756828260405180602001604052806000815250610daa565b816001600160a01b0316836001600160a01b03161415610c325760405162461bcd60e51b815260206004820152601960248201527f4552433732313a20617070726f766520746f2063616c6c6572000000000000006044820152606401610417565b6001600160a01b03838116600081815260056020908152604080832094871680845294825291829020805460ff191686151590811790915591519182527f17307eab39ab6107e8899845ad3d59bd9653f200f220920489ca2b5937696c31910160405180910390a3505050565b610caa848484610a0f565b610cb684848484610ddd565b6107975760405162461bcd60e51b8152600401610417906115a3565b606060405180608001604052806043815260200161166660439139905090565b6001600160a01b038316610d4d57610d4881600880546000838152600960205260408120829055600182018355919091527ff3f7a9fe364faab93b216da50a3214154f22a0a2b415b23a84c8169e8b636ee30155565b610d70565b816001600160a01b0316836001600160a01b031614610d7057610d708382610edb565b6001600160a01b038216610d87576104b881610f78565b826001600160a01b0316826001600160a01b0316146104b8576104b88282611027565b610db4838361106b565b610dc16000848484610ddd565b6104b85760405162461bcd60e51b8152600401610417906115a3565b60006001600160a01b0384163b15610ed057604051630a85bd0160e11b81526001600160a01b0385169063150b7a0290610e219033908990889088906004016115f5565b6020604051808303816000875af1925050508015610e5c575060408051601f3d908101601f19168201909252610e5991810190611632565b60015b610eb6573d808015610e8a576040519150601f19603f3d011682016040523d82523d6000602084013e610e8f565b606091505b508051610eae5760405162461bcd60e51b8152600401610417906115a3565b805181602001fd5b6001600160e01b031916630a85bd0160e11b14905061085a565b506001949350505050565b60006001610ee884610692565b610ef29190611574565b600083815260076020526040902054909150808214610f45576001600160a01b03841660009081526006602090815260408083208584528252808320548484528184208190558352600790915290208190555b5060009182526007602090815260408084208490556001600160a01b039094168352600681528383209183525290812055565b600854600090610f8a90600190611574565b60008381526009602052604081205460088054939450909284908110610fb257610fb26114fe565b906000526020600020015490508060088381548110610fd357610fd36114fe565b600091825260208083209091019290925582815260099091526040808220849055858252812055600880548061100b5761100b61164f565b6001900381819060005260206000200160009055905550505050565b600061103283610692565b6001600160a01b039093166000908152600660209081526040808320868452825280832085905593825260079052919091209190915550565b6001600160a01b0382166110c15760405162461bcd60e51b815260206004820181905260248201527f4552433732313a206d696e7420746f20746865207a65726f20616464726573736044820152606401610417565b6000818152600260205260409020546001600160a01b0316156111265760405162461bcd60e51b815260206004820152601c60248201527f4552433732313a20746f6b656e20616c7265616479206d696e746564000000006044820152606401610417565b61113260008383610cf2565b6001600160a01b038216600090815260036020526040812080546001929061115b90849061158b565b909155505060008181526002602052604080822080546001600160a01b0319166001600160a01b03861690811790915590518392907fddf252ad1be2c89b69c2b068fc378daa952ba7f163c4a11628f55a4df523b3ef908290a45050565b6001600160e01b03198116811461092057600080fd5b6000602082840312156111e157600080fd5b81356111ec816111b9565b9392505050565b60005b8381101561120e5781810151838201526020016111f6565b838111156107975750506000910152565b600081518084526112378160208601602086016111f3565b601f01601f19169290920160200192915050565b6020815260006111ec602083018461121f565b60006020828403121561127057600080fd5b5035919050565b80356001600160a01b038116811461128e57600080fd5b919050565b600080604083850312156112a657600080fd5b6112af83611277565b946020939093013593505050565b6000806000606084860312156112d257600080fd5b6112db84611277565b92506112e960208501611277565b9150604084013590509250925092565b60006020828403121561130b57600080fd5b6111ec82611277565b6000806040838503121561132757600080fd5b61133083611277565b91506020830135801515811461134557600080fd5b809150509250929050565b634e487b7160e01b600052604160045260246000fd5b6000806000806080858703121561137c57600080fd5b61138585611277565b935061139360208601611277565b925060408501359150606085013567ffffffffffffffff808211156113b757600080fd5b818701915087601f8301126113cb57600080fd5b8135818111156113dd576113dd611350565b604051601f8201601f19908116603f0116810190838211818310171561140557611405611350565b816040528281528a602084870101111561141e57600080fd5b82602086016020830137600060208483010152809550505050505092959194509250565b6000806040838503121561145557600080fd5b61145e83611277565b915061146c60208401611277565b90509250929050565b600181811c9082168061148957607f821691505b602082108114156114aa57634e487b7160e01b600052602260045260246000fd5b50919050565b6020808252602e908201527f4552433732313a2063616c6c6572206973206e6f7420746f6b656e206f776e6560408201526d1c881b9bdc88185c1c1c9bdd995960921b606082015260800190565b634e487b7160e01b600052603260045260246000fd5b634e487b7160e01b600052601160045260246000fd5b600060001982141561153e5761153e611514565b5060010190565b600083516115578184602088016111f3565b83519083019061156b8183602088016111f3565b01949350505050565b60008282101561158657611586611514565b500390565b6000821982111561159e5761159e611514565b500190565b60208082526032908201527f4552433732313a207472616e7366657220746f206e6f6e20455243373231526560408201527131b2b4bb32b91034b6b83632b6b2b73a32b960711b606082015260800190565b6001600160a01b03858116825284166020820152604081018390526080606082018190526000906116289083018461121f565b9695505050505050565b60006020828403121561164457600080fd5b81516111ec816111b9565b634e487b7160e01b600052603160045260246000fdfe68747470733a2f2f697066732e696f2f697066732f516d5752565672386a5a454a6e7646587541444835516b4d4d5069534256416f6e676456584c724d536271424e33a264697066735822122086199bb84692bdb87e118693aee34c41add64be1b41efc627814bec9383a9b6264736f6c634300080a00334552433732313a207472616e7366657220746f206e6f6e204552433732315265",
    "linkReferences": {}
  },
  "methodIdentifiers": {
    "approve(address,uint256)": "095ea7b3",
    "balanceOf(address)": "70a08231",
    "getApproved(uint256)": "081812fc",
    "isApprovedForAll(address,address)": "e985e9c5",
    "mint(uint256)": "a0712d68",
    "name()": "06fdde03",
    "ownerOf(uint256)": "6352211e",
    "reveal()": "a475b5dd",
    "safeTransferFrom(address,address,uint256)": "42842e0e",
    "safeTransferFrom(address,address,uint256,bytes)": "b88d4fde",
    "setApprovalForAll(address,bool)": "a22cb465",
    "supportsInterface(bytes4)": "01ffc9a7",
    "symbol()": "95d89b41",
    "tokenByIndex(uint256)": "4f6ccce7",
    "tokenOfOwnerByIndex(address,uint256)": "2f745c59",
    "tokenURI(uint256)": "c87b56dd",
    "totalSupply()": "18160ddd",
    "transferFrom(address,address,uint256)": "23b872dd"
  },
  "id": 2
}