{
  "abi": [
    {
      "inputs": [
        {
          "internalType": "address",
          "name": "_WETH",
          "type": "address"
        }
      ],
      "stateMutability": "nonpayable",
      "type": "constructor"
    },
    {
      "inputs": [],
      "name": "failedToSendEther",
      "type": "error"
    },
    {
      "inputs": [],
      "name": "notEnoughBalance",
      "type": "error"
    },
    {
      "inputs": [],
      "name": "notOwner",
      "type": "error"
    },
    {
      "inputs": [],
      "name": "offerClosed",
      "type": "error"
    },
    {
      "inputs": [],
      "name": "standardNotRecognized",
      "type": "error"
    },
    {
      "anonymous": false,
      "inputs": [
        {
          "indexed": false,
          "internalType": "address",
          "name": "_operator",
          "type": "address"
        },
        {
          "indexed": false,
          "internalType": "address",
          "name": "_from",
          "type": "address"
        },
        {
          "indexed": false,
          "internalType": "uint256[]",
          "name": "ids",
          "type": "uint256[]"
        },
        {
          "indexed": false,
          "internalType": "uint256[]",
          "name": "values",
          "type": "uint256[]"
        },
        {
          "indexed": false,
          "internalType": "string",
          "name": "standard",
          "type": "string"
        },
        {
          "indexed": false,
          "internalType": "bytes",
          "name": "data",
          "type": "bytes"
        }
      ],
      "name": "BatchNFTReceived",
      "type": "event"
    },
    {
      "anonymous": false,
      "inputs": [
        {
          "indexed": false,
          "internalType": "address",
          "name": "operator",
          "type": "address"
        },
        {
          "indexed": false,
          "internalType": "address",
          "name": "from",
          "type": "address"
        },
        {
          "indexed": false,
          "internalType": "uint256",
          "name": "tokenId",
          "type": "uint256"
        },
        {
          "indexed": false,
          "internalType": "uint256",
          "name": "amount",
          "type": "uint256"
        },
        {
          "indexed": false,
          "internalType": "string",
          "name": "standard",
          "type": "string"
        },
        {
          "indexed": false,
          "internalType": "bytes",
          "name": "data",
          "type": "bytes"
        }
      ],
      "name": "NFTReceived",
      "type": "event"
    },
    {
      "anonymous": false,
      "inputs": [
        {
          "indexed": false,
          "internalType": "uint256",
          "name": "marketOfferId",
          "type": "uint256"
        },
        {
          "indexed": false,
          "internalType": "address",
          "name": "offererAddress",
          "type": "address"
        },
        {
          "indexed": false,
          "internalType": "uint256",
          "name": "canceledOffer",
          "type": "uint256"
        }
      ],
      "name": "OfferCanceled",
      "type": "event"
    },
    {
      "anonymous": false,
      "inputs": [
        {
          "indexed": false,
          "internalType": "uint256",
          "name": "marketOfferId",
          "type": "uint256"
        },
        {
          "indexed": false,
          "internalType": "address",
          "name": "offerer",
          "type": "address"
        },
        {
          "indexed": false,
          "internalType": "uint256",
          "name": "offerPrice",
          "type": "uint256"
        }
      ],
      "name": "OfferSubmitted",
      "type": "event"
    },
    {
      "anonymous": false,
      "inputs": [
        {
          "indexed": true,
          "internalType": "address",
          "name": "previousOwner",
          "type": "address"
        },
        {
          "indexed": true,
          "internalType": "address",
          "name": "newOwner",
          "type": "address"
        }
      ],
      "name": "OwnershipTransferred",
      "type": "event"
    },
    {
      "anonymous": false,
      "inputs": [
        {
          "indexed": false,
          "internalType": "uint256",
          "name": "marketOfferId",
          "type": "uint256"
        }
      ],
      "name": "SaleCanceled",
      "type": "event"
    },
    {
      "anonymous": false,
      "inputs": [
        {
          "indexed": false,
          "internalType": "uint256",
          "name": "offerId",
          "type": "uint256"
        },
        {
          "indexed": false,
          "internalType": "address",
          "name": "from",
          "type": "address"
        },
        {
          "indexed": false,
          "internalType": "uint256",
          "name": "tokenId",
          "type": "uint256"
        },
        {
          "indexed": false,
          "internalType": "address",
          "name": "contractAddress",
          "type": "address"
        },
        {
          "indexed": false,
          "internalType": "string",
          "name": "standard",
          "type": "string"
        },
        {
          "indexed": false,
          "internalType": "uint256",
          "name": "price",
          "type": "uint256"
        }
      ],
      "name": "SaleCreated",
      "type": "event"
    },
    {
      "anonymous": false,
      "inputs": [
        {
          "indexed": false,
          "internalType": "uint256",
          "name": "marketOfferId",
          "type": "uint256"
        },
        {
          "indexed": false,
          "internalType": "address",
          "name": "seller",
          "type": "address"
        },
        {
          "indexed": false,
          "internalType": "address",
          "name": "buyer",
          "type": "address"
        },
        {
          "indexed": false,
          "internalType": "uint256",
          "name": "price",
          "type": "uint256"
        }
      ],
      "name": "SaleSuccessful",
      "type": "event"
    },
    {
      "stateMutability": "nonpayable",
      "type": "fallback"
    },
    {
      "inputs": [],
      "name": "WETH",
      "outputs": [
        {
          "internalType": "contract ERC20",
          "name": "",
          "type": "address"
        }
      ],
      "stateMutability": "view",
      "type": "function"
    },
    {
      "inputs": [
        {
          "internalType": "uint256",
          "name": "_marketOfferId",
          "type": "uint256"
        },
        {
          "internalType": "uint256",
          "name": "_index",
          "type": "uint256"
        }
      ],
      "name": "acceptOffer",
      "outputs": [],
      "stateMutability": "nonpayable",
      "type": "function"
    },
    {
      "inputs": [
        {
          "internalType": "address",
          "name": "",
          "type": "address"
        }
      ],
      "name": "balanceOfEth",
      "outputs": [
        {
          "internalType": "uint256",
          "name": "",
          "type": "uint256"
        }
      ],
      "stateMutability": "view",
      "type": "function"
    },
    {
      "inputs": [
        {
          "internalType": "uint256",
          "name": "_marketOfferId",
          "type": "uint256"
        }
      ],
      "name": "buySale",
      "outputs": [],
      "stateMutability": "payable",
      "type": "function"
    },
    {
      "inputs": [
        {
          "internalType": "uint256",
          "name": "_marketOfferId",
          "type": "uint256"
        },
        {
          "internalType": "uint256",
          "name": "_index",
          "type": "uint256"
        }
      ],
      "name": "cancelOffer",
      "outputs": [],
      "stateMutability": "nonpayable",
      "type": "function"
    },
    {
      "inputs": [
        {
          "internalType": "uint256",
          "name": "_marketOfferId",
          "type": "uint256"
        }
      ],
      "name": "cancelSale",
      "outputs": [],
      "stateMutability": "nonpayable",
      "type": "function"
    },
    {
      "inputs": [
        {
          "internalType": "address",
          "name": "_contractAddress",
          "type": "address"
        },
        {
          "internalType": "uint256",
          "name": "_tokenId",
          "type": "uint256"
        },
        {
          "internalType": "uint256",
          "name": "_price",
          "type": "uint256"
        }
      ],
      "name": "createSale",
      "outputs": [],
      "stateMutability": "nonpayable",
      "type": "function"
    },
    {
      "inputs": [],
      "name": "getEthFees",
      "outputs": [
        {
          "internalType": "uint256",
          "name": "",
          "type": "uint256"
        }
      ],
      "stateMutability": "view",
      "type": "function"
    },
    {
      "inputs": [
        {
          "internalType": "uint256",
          "name": "_marketOfferId",
          "type": "uint256"
        }
      ],
      "name": "getSaleOrder",
      "outputs": [
        {
          "components": [
            {
              "internalType": "uint256",
              "name": "price",
              "type": "uint256"
            },
            {
              "internalType": "uint256",
              "name": "tokenId",
              "type": "uint256"
            },
            {
              "internalType": "address",
              "name": "contractAddress",
              "type": "address"
            },
            {
              "internalType": "address",
              "name": "seller",
              "type": "address"
            },
            {
              "internalType": "address",
              "name": "buyer",
              "type": "address"
            },
            {
              "internalType": "bytes4",
              "name": "standard",
              "type": "bytes4"
            },
            {
              "internalType": "bool",
              "name": "closed",
              "type": "bool"
            },
            {
              "components": [
                {
                  "internalType": "address",
                  "name": "sender",
                  "type": "address"
                },
                {
                  "internalType": "uint256",
                  "name": "offerPrice",
                  "type": "uint256"
                },
                {
                  "internalType": "uint256",
                  "name": "duration",
                  "type": "uint256"
                },
                {
                  "internalType": "uint256",
                  "name": "offerTime",
                  "type": "uint256"
                }
              ],
              "internalType": "struct Marketplace.Offer[]",
              "name": "offers",
              "type": "tuple[]"
            }
          ],
          "internalType": "struct Marketplace.SaleOrder",
          "name": "",
          "type": "tuple"
        }
      ],
      "stateMutability": "view",
      "type": "function"
    },
    {
      "inputs": [],
      "name": "getWEthFees",
      "outputs": [
        {
          "internalType": "uint256",
          "name": "",
          "type": "uint256"
        }
      ],
      "stateMutability": "view",
      "type": "function"
    },
    {
      "inputs": [
        {
          "internalType": "uint256",
          "name": "_marketOfferId",
          "type": "uint256"
        },
        {
          "internalType": "uint256",
          "name": "_amount",
          "type": "uint256"
        },
        {
          "internalType": "uint256",
          "name": "_duration",
          "type": "uint256"
        }
      ],
      "name": "makeOffer",
      "outputs": [],
      "stateMutability": "nonpayable",
      "type": "function"
    },
    {
      "inputs": [],
      "name": "marketOffersNonce",
      "outputs": [
        {
          "internalType": "uint256",
          "name": "",
          "type": "uint256"
        }
      ],
      "stateMutability": "view",
      "type": "function"
    },
    {
      "inputs": [],
      "name": "marketPlaceFee",
      "outputs": [
        {
          "internalType": "uint256",
          "name": "",
          "type": "uint256"
        }
      ],
      "stateMutability": "view",
      "type": "function"
    },
    {
      "inputs": [
        {
          "internalType": "uint256",
          "name": "_marketOfferId",
          "type": "uint256"
        },
        {
          "internalType": "uint256",
          "name": "_newPrice",
          "type": "uint256"
        }
      ],
      "name": "modifySale",
      "outputs": [],
      "stateMutability": "nonpayable",
      "type": "function"
    },
    {
      "inputs": [
        {
          "internalType": "address",
          "name": "operator",
          "type": "address"
        },
        {
          "internalType": "address",
          "name": "from",
          "type": "address"
        },
        {
          "internalType": "uint256[]",
          "name": "ids",
          "type": "uint256[]"
        },
        {
          "internalType": "uint256[]",
          "name": "values",
          "type": "uint256[]"
        },
        {
          "internalType": "bytes",
          "name": "data",
          "type": "bytes"
        }
      ],
      "name": "onERC1155BatchReceived",
      "outputs": [
        {
          "internalType": "bytes4",
          "name": "",
          "type": "bytes4"
        }
      ],
      "stateMutability": "nonpayable",
      "type": "function"
    },
    {
      "inputs": [
        {
          "internalType": "address",
          "name": "operator",
          "type": "address"
        },
        {
          "internalType": "address",
          "name": "from",
          "type": "address"
        },
        {
          "internalType": "uint256",
          "name": "id",
          "type": "uint256"
        },
        {
          "internalType": "uint256",
          "name": "value",
          "type": "uint256"
        },
        {
          "internalType": "bytes",
          "name": "data",
          "type": "bytes"
        }
      ],
      "name": "onERC1155Received",
      "outputs": [
        {
          "internalType": "bytes4",
          "name": "",
          "type": "bytes4"
        }
      ],
      "stateMutability": "nonpayable",
      "type": "function"
    },
    {
      "inputs": [
        {
          "internalType": "address",
          "name": "operator",
          "type": "address"
        },
        {
          "internalType": "address",
          "name": "from",
          "type": "address"
        },
        {
          "internalType": "uint256",
          "name": "tokenId",
          "type": "uint256"
        },
        {
          "internalType": "bytes",
          "name": "data",
          "type": "bytes"
        }
      ],
      "name": "onERC721Received",
      "outputs": [
        {
          "internalType": "bytes4",
          "name": "",
          "type": "bytes4"
        }
      ],
      "stateMutability": "nonpayable",
      "type": "function"
    },
    {
      "inputs": [],
      "name": "owner",
      "outputs": [
        {
          "internalType": "address",
          "name": "",
          "type": "address"
        }
      ],
      "stateMutability": "view",
      "type": "function"
    },
    {
      "inputs": [],
      "name": "renounceOwnership",
      "outputs": [],
      "stateMutability": "nonpayable",
      "type": "function"
    },
    {
      "inputs": [
        {
          "internalType": "uint256",
          "name": "_fees",
          "type": "uint256"
        }
      ],
      "name": "setFees",
      "outputs": [],
      "stateMutability": "nonpayable",
      "type": "function"
    },
    {
      "inputs": [
        {
          "internalType": "bytes4",
          "name": "interfaceId",
          "type": "bytes4"
        }
      ],
      "name": "supportsInterface",
      "outputs": [
        {
          "internalType": "bool",
          "name": "",
          "type": "bool"
        }
      ],
      "stateMutability": "pure",
      "type": "function"
    },
    {
      "inputs": [
        {
          "internalType": "address",
          "name": "newOwner",
          "type": "address"
        }
      ],
      "name": "transferOwnership",
      "outputs": [],
      "stateMutability": "nonpayable",
      "type": "function"
    },
    {
      "inputs": [
        {
          "internalType": "address",
          "name": "_contract",
          "type": "address"
        },
        {
          "internalType": "uint256",
          "name": "_tokenId",
          "type": "uint256"
        },
        {
          "internalType": "address",
          "name": "_to",
          "type": "address"
        }
      ],
      "name": "unlockNFT",
      "outputs": [],
      "stateMutability": "nonpayable",
      "type": "function"
    },
    {
      "inputs": [],
      "name": "withdrawEth",
      "outputs": [],
      "stateMutability": "nonpayable",
      "type": "function"
    },
    {
      "inputs": [],
      "name": "withdrawEthFees",
      "outputs": [],
      "stateMutability": "payable",
      "type": "function"
    },
    {
      "inputs": [],
      "name": "withdrawWETHFees",
      "outputs": [],
      "stateMutability": "payable",
      "type": "function"
    },
    {
      "stateMutability": "payable",
      "type": "receive"
    }
  ],
  "bytecode": {
    "object": "0x60a060405260016002553480156200001657600080fd5b50604051620033a1380380620033a18339810160408190526200003991620000ad565b600160005562000049336200005b565b6001600160a01b0316608052620000df565b600180546001600160a01b038381166001600160a01b0319831681179093556040519116919082907f8be0079c531659141344cd1fd0a4f28419497f9722a3daafe3b4186f6b6457e090600090a35050565b600060208284031215620000c057600080fd5b81516001600160a01b0381168114620000d857600080fd5b9392505050565b60805161327c62000125600039600081816103ab015281816106d5015281816109f101528181610ae201528181610f440152818161103a01526122a1015261327c6000f3fe6080604052600436106101855760003560e01c8063acf1190d116100d1578063d45557cc1161008a578063f015498e11610064578063f015498e1461048e578063f23a6e61146104ae578063f2fde38b146104ce578063fa5c0c70146104ee5761019e565b8063d45557cc14610438578063e210a72d14610458578063e37b0760146104785761019e565b8063acf1190d14610386578063ad5c464814610399578063bc197c81146103cd578063bd94b005146103ed578063bf70e8ca1461040d578063d06ceee8146104235761019e565b8063715018a61161013e5780638da5cb5b116101185780638da5cb5b1461030a578063983333341461033c5780639f161af214610351578063a0ef91df146103715761019e565b8063715018a6146102b55780637f6763b1146102ca57806381257bd5146102ea5761019e565b806301ffc9a7146101e6578063150b7a021461021b5780632f5f1074146102485780633d18678e1461025257806340654e1414610272578063508925bb146102ad5761019e565b3661019e57336000908152600760205260409020349055005b3480156101aa57600080fd5b5060405162461bcd60e51b815260206004820152600b60248201526a1b9bdd08185b1b1bddd95960aa1b60448201526064015b60405180910390fd5b3480156101f257600080fd5b5061020661020136600461294e565b61051b565b60405190151581526020015b60405180910390f35b34801561022757600080fd5b5061023b6102363660046129dd565b61056d565b6040516102129190612a50565b6102506105f8565b005b34801561025e57600080fd5b5061025061026d366004612a65565b610672565b34801561027e57600080fd5b5061029f61028d366004612a7e565b60076020526000908152604090205481565b604051908152602001610212565b6102506106c9565b3480156102c157600080fd5b50610250610790565b3480156102d657600080fd5b506102506102e5366004612a9b565b6107a4565b3480156102f657600080fd5b50610250610305366004612a9b565b610806565b34801561031657600080fd5b506001546001600160a01b03165b6040516001600160a01b039091168152602001610212565b34801561034857600080fd5b5061029f61113d565b34801561035d57600080fd5b5061025061036c366004612abd565b61114e565b34801561037d57600080fd5b50610250611715565b610250610394366004612a65565b611781565b3480156103a557600080fd5b506103247f000000000000000000000000000000000000000000000000000000000000000081565b3480156103d957600080fd5b5061023b6103e8366004612b37565b611c5b565b3480156103f957600080fd5b50610250610408366004612a65565b611cec565b34801561041957600080fd5b5061029f60055481565b34801561042f57600080fd5b5061029f611fbf565b34801561044457600080fd5b50610250610453366004612a9b565b611fd0565b34801561046457600080fd5b50610250610473366004612bf6565b6121de565b34801561048457600080fd5b5061029f60025481565b34801561049a57600080fd5b506102506104a9366004612c22565b612448565b3480156104ba57600080fd5b5061023b6104c9366004612c64565b6124b7565b3480156104da57600080fd5b506102506104e9366004612a7e565b612542565b3480156104fa57600080fd5b5061050e610509366004612a65565b6125bb565b6040516102129190612d44565b60006001600160e01b03198216630a85bd0160e11b148061054c57506001600160e01b03198216630271189760e51b145b8061056757506001600160e01b031982166301ffc9a760e01b145b92915050565b60003330148015906105875750326001600160a01b038716145b156105a45760405162461bcd60e51b81526004016101dd90612dde565b7f6534e2b03649bd39764c956640f7fdd29d7bd36b642a687678e6a8e9147d5ed5868686600187876040516105de96959493929190612e3e565b60405180910390a150630a85bd0160e11b95945050505050565b61060061270e565b60035460405160009133918381818185875af1925050503d8060008114610643576040519150601f19603f3d011682016040523d82523d6000602084013e610648565b606091505b505090508061066a576040516380231b8f60e01b815260040160405180910390fd5b506000600355565b61067a61270e565b600a8111156106c45760405162461bcd60e51b815260206004820152601660248201527563616e2774206265206d6f7265207468616e2031302560501b60448201526064016101dd565b600555565b6106d161270e565b60007f00000000000000000000000000000000000000000000000000000000000000006001600160a01b03166323b872dd30336004546040518463ffffffff1660e01b815260040161072593929190612ea6565b6020604051808303816000875af1158015610744573d6000803e3d6000fd5b505050506040513d601f19601f820116820180604052508101906107689190612eca565b905080610788576040516380231b8f60e01b815260040160405180910390fd5b506000600455565b61079861270e565b6107a26000612768565b565b6000828152600660205260409020600301546001600160a01b031633146107de5760405163251c9d6360e01b815260040160405180910390fd5b6107f081670de0b6b3a7640000612f02565b6000928352600660205260409092209190915550565b600260005414156108295760405162461bcd60e51b81526004016101dd90612f21565b6002600090815582815260066020526040812060050180548390811061085157610851612f58565b6000918252602080832060408051608081018252600490940290910180546001600160a01b039081168552600182015485850152600282015485840152600391820154606086015288865260069093529320909201549092501633146108ca5760405163251c9d6360e01b815260040160405180910390fd5b600083815260066020526040902060040154600160c01b900460ff16156109245760405162461bcd60e51b815260206004820152600e60248201526d1cd85b19481a5cc818db1bdcd95960921b60448201526064016101dd565b60008381526006602052604090206005015482106109795760405162461bcd60e51b81526020600482015260126024820152711a5b99195e081bdd5d081bd988189bdd5b9960721b60448201526064016101dd565b8060400151816060015161098d9190612f6e565b42106109cb5760405162461bcd60e51b815260206004820152600d60248201526c1bd999995c88195e1c1a5c9959609a1b60448201526064016101dd565b602081015181516040516370a0823160e01b81526001600160a01b0391821660048201527f0000000000000000000000000000000000000000000000000000000000000000909116906370a0823190602401602060405180830381865afa158015610a3a573d6000803e3d6000fd5b505050506040513d601f19601f82011682018060405250810190610a5e9190612f86565b11610aab5760405162461bcd60e51b815260206004820152601860248201527f574554483a206e6f7420656e6f7567682062616c616e6365000000000000000060448201526064016101dd565b6000838152600660205260409020600501805483908110610ace57610ace612f58565b9060005260206000209060040201600101547f00000000000000000000000000000000000000000000000000000000000000006001600160a01b031663dd62ed3e8360000151306040518363ffffffff1660e01b8152600401610b479291906001600160a01b0392831681529116602082015260400190565b602060405180830381865afa158015610b64573d6000803e3d6000fd5b505050506040513d601f19601f82011682018060405250810190610b889190612f86565b1015610bcd5760405162461bcd60e51b81526020600482015260146024820152736e6f7420656e6f75676820616c6c6f77616e636560601b60448201526064016101dd565b8051600084815260066020908152604080832060048101805484880151808455600160c01b6001600160a01b03988916600164ff0000000160a01b03199093169290921782179283905584516101008101865290815260018401548187015260028401548816818601526003840154881660608201529682166080880152600160a01b820460e090811b6001600160e01b03191660a089015260ff9190920416151560c0870152600582018054845181870281018701909552808552959695929491860193929091879084015b82821015610cf7576000848152602090819020604080516080810182526004860290920180546001600160a01b03168352600180820154848601526002820154928401929092526003015460608301529083529092019101610c9a565b5050509152505060408082015190516301ffc9a760e01b81529192506001600160a01b0316906301ffc9a790610d38906380ac58cd60e01b90600401612a50565b602060405180830381865afa158015610d55573d6000803e3d6000fd5b505050506040513d601f19601f82011682018060405250810190610d799190612eca565b15610df15780604001516001600160a01b03166342842e0e30836080015184602001516040518463ffffffff1660e01b8152600401610dba93929190612ea6565b600060405180830381600087803b158015610dd457600080fd5b505af1158015610de8573d6000803e3d6000fd5b50505050610ec2565b80604001516001600160a01b03166301ffc9a7636cdb3d1360e11b6040518263ffffffff1660e01b8152600401610e289190612a50565b602060405180830381865afa158015610e45573d6000803e3d6000fd5b505050506040513d601f19601f82011682018060405250810190610e699190612eca565b15610ea95780604001516001600160a01b031663f242432a3033846020015160016040518563ffffffff1660e01b8152600401610dba9493929190612f9f565b60405163298a534b60e11b815260040160405180910390fd5b600060646005548460200151610ed89190612f02565b610ee29190612fd7565b8360200151610ef19190612ff9565b905060646005548460200151610f079190612f02565b610f119190612fd7565b60046000828254610f229190612f6e565b9091555050600085815260066020526040812060050180546001600160a01b037f000000000000000000000000000000000000000000000000000000000000000016916323b872dd9188908110610f7b57610f7b612f58565b60009182526020909120600491820201546040516001600160e01b031960e085901b168152610fba926001600160a01b03909216913391889101612ea6565b6020604051808303816000875af1158015610fd9573d6000803e3d6000fd5b505050506040513d601f19601f82011682018060405250810190610ffd9190612eca565b90508061101d576040516380231b8f60e01b815260040160405180910390fd5b600086815260066020526040812060050180546001600160a01b037f000000000000000000000000000000000000000000000000000000000000000016916323b872dd918990811061107157611071612f58565b600091825260209182902060049091020154600554918901516001600160a01b039091169130916064916110a491612f02565b6110ae9190612fd7565b6040518463ffffffff1660e01b81526004016110cc93929190612ea6565b6020604051808303816000875af11580156110eb573d6000803e3d6000fd5b505050506040513d601f19601f8201168201806040525081019061110f9190612eca565b90508061112f576040516380231b8f60e01b815260040160405180910390fd5b505060016000555050505050565b600061114761270e565b5060035490565b6040516301ffc9a760e01b81526001600160a01b038416906301ffc9a790611181906380ac58cd60e01b90600401612a50565b602060405180830381865afa15801561119e573d6000803e3d6000fd5b505050506040513d601f19601f820116820180604052508101906111c29190612eca565b156114655760006111d384846127ba565b905080156112145760405162461bcd60e51b815260206004820152600e60248201526d616c726561647920612073616c6560901b60448201526064016101dd565b600080856001600160a01b03168560405160240161123491815260200190565b60408051601f198184030181529181526020820180516001600160e01b03166331a9108f60e11b179052516112699190613010565b600060405180830381855afa9150503d80600081146112a4576040519150601f19603f3d011682016040523d82523d6000602084013e6112a9565b606091505b5091509150816112ef5760405162461bcd60e51b81526020600482015260116024820152701b9bdb881d9a595dc819195d1958dd1959607a1b60448201526064016101dd565b600081806020019051810190611305919061304b565b90506001600160a01b03811633146113305760405163251c9d6360e01b815260040160405180910390fd5b60028054600090815260066020526040808220830180546001600160a01b03199081166001600160a01b038d1690811790925584548452828420600301805433921682179055845484528284208a9055845484528284206001018b905593548352918190206004908101805463ffffffff60a01b19166380ac58cd60a01b1790559051632142170760e11b81528a936342842e0e926113d39230918d9101612ea6565b600060405180830381600087803b1580156113ed57600080fd5b505af1158015611401573d6000803e3d6000fd5b505050507f37c8383ba88f956460cbba95ca2b6c368decfb36971953afb97fa3f3497125ab60025433898b8a60405161143e959493929190613068565b60405180910390a160028054906000611456836130c1565b91905055505050505050505050565b6040516301ffc9a760e01b81526001600160a01b038416906301ffc9a79061149890636cdb3d1360e11b90600401612a50565b602060405180830381865afa1580156114b5573d6000803e3d6000fd5b505050506040513d601f19601f820116820180604052508101906114d99190612eca565b15610ea957604051627eeac760e11b81523360048201526024810183905283906001906001600160a01b0383169062fdd58e90604401602060405180830381865afa15801561152c573d6000803e3d6000fd5b505050506040513d601f19601f820116820180604052508101906115509190612f86565b101561156f5760405163251c9d6360e01b815260040160405180910390fd5b600061157c85853361282a565b9050806115d95760405162461bcd60e51b815260206004820152602560248201527f6e6f7420656e6f7567682062616c616e636520746f206973737565206e65772060448201526437b93232b960d91b60648201526084016101dd565b60028054600090815260066020526040808220830180546001600160a01b03199081166001600160a01b038b81169190911790925584548452828420600301805433921682179055845484528284208890558454845282842060019081018a905594548452928290206004908101805463ffffffff60a01b1916636cdb3d1360a11b1790559151637921219560e11b81529086169363f242432a9361168693909230928b92909101612f9f565b600060405180830381600087803b1580156116a057600080fd5b505af11580156116b4573d6000803e3d6000fd5b505050507f37c8383ba88f956460cbba95ca2b6c368decfb36971953afb97fa3f3497125ab600254338688876040516116f19594939291906130dc565b60405180910390a160028054906000611709836130c1565b91905055505050505050565b33600081815260076020526040808220805490839055905190929083908381818185875af1925050503d806000811461176a576040519150601f19603f3d011682016040523d82523d6000602084013e61176f565b606091505b505090508061177d57600080fd5b5050565b600260005414156117a45760405162461bcd60e51b81526004016101dd90612f21565b600260009081558181526006602052604090205434146117fd5760405162461bcd60e51b81526020600482015260146024820152731b9bdd081d1a19481c9a59da1d08185b5bdd5b9d60621b60448201526064016101dd565b600081815260066020526040902060040154600160c01b900460ff1615611837576040516311893dcb60e01b815260040160405180910390fd5b60006064600554346118499190612f02565b6118539190612fd7565b61185d9034612ff9565b905060646005543461186f9190612f02565b6118799190612fd7565b6003600082825461188a9190612f6e565b90915550506000828152600660205260408082206003015490516001600160a01b039091169083908381818185875af1925050503d80600081146118ea576040519150601f19603f3d011682016040523d82523d6000602084013e6118ef565b606091505b5050905080611911576040516380231b8f60e01b815260040160405180910390fd5b6000838152600660209081526040808320600481018054600160c01b600164ff0000000160a01b03199091163360ff60c01b1916178117918290558351610100810185528354815260018401548187015260028401546001600160a01b039081168287015260038501548116606083015283166080820152600160a01b830460e090811b6001600160e01b03191660a083015260ff9290930491909116151560c08201526005830180548551818802810188019096528086529195939492860193909190879084015b82821015611a37576000848152602090819020604080516080810182526004860290920180546001600160a01b031683526001808201548486015260028201549284019290925260030154606083015290835290920191016119da565b5050509152505060408082015190516301ffc9a760e01b81529192506001600160a01b0316906301ffc9a790611a78906380ac58cd60e01b90600401612a50565b602060405180830381865afa158015611a95573d6000803e3d6000fd5b505050506040513d601f19601f82011682018060405250810190611ab99190612eca565b15611b2d5780604001516001600160a01b03166342842e0e303384602001516040518463ffffffff1660e01b8152600401611af693929190612ea6565b600060405180830381600087803b158015611b1057600080fd5b505af1158015611b24573d6000803e3d6000fd5b50505050611be5565b80604001516001600160a01b03166301ffc9a7636cdb3d1360e11b6040518263ffffffff1660e01b8152600401611b649190612a50565b602060405180830381865afa158015611b81573d6000803e3d6000fd5b505050506040513d601f19601f82011682018060405250810190611ba59190612eca565b15610ea95780604001516001600160a01b031663f242432a3033846020015160016040518563ffffffff1660e01b8152600401611af69493929190612f9f565b6000848152600660209081526040918290206003810154905483518881526001600160a01b0390921692820192909252339281019290925260608201527f64b02497e7e7114dfbf373decb8fc827c41794498699d8742beb61a0038f6c5b906080015b60405180910390a1505060016000555050565b6000323014801590611c755750326001600160a01b038a16145b15611c925760405162461bcd60e51b81526004016101dd90612dde565b7f499cdf5238cb20ecc171c9d2c59ae8ff3c58a7c5f2ca6d5a767d6a7f78fc30a38989898989898989604051611ccf98979695949392919061315e565b60405180910390a15063bc197c8160e01b98975050505050505050565b60026000541415611d0f5760405162461bcd60e51b81526004016101dd90612f21565b6002600090815581815260066020526040902060040154600160c01b900460ff1615611d4e576040516311893dcb60e01b815260040160405180910390fd5b6000818152600660205260409020600301546001600160a01b03163314611d885760405163251c9d6360e01b815260040160405180910390fd5b600081815260066020526040908190206004808201805460ff60c01b1916600160c01b17905560029091015491516301ffc9a760e01b81526001600160a01b03909216916301ffc9a791611de5916380ac58cd60e01b9101612a50565b602060405180830381865afa158015611e02573d6000803e3d6000fd5b505050506040513d601f19601f82011682018060405250810190611e269190612eca565b15611eac576000818152600660205260409081902060028101546001909101549151632142170760e11b81526001600160a01b03909116916342842e0e91611e75913091339190600401612ea6565b600060405180830381600087803b158015611e8f57600080fd5b505af1158015611ea3573d6000803e3d6000fd5b50505050611f84565b600081815260066020526040908190206002015490516301ffc9a760e01b81526001600160a01b03909116906301ffc9a790611ef3906380ac58cd60e01b90600401612a50565b602060405180830381865afa158015611f10573d6000803e3d6000fd5b505050506040513d601f19601f82011682018060405250810190611f349190612eca565b15610ea9576000818152600660205260409081902060028101546001918201549251637921219560e11b81526001600160a01b039091169263f242432a92611e7592309233929091600401612f9f565b6040518181527fbc3d8540adfcf6600ea8f790c6ed415a6aa7a1219d45ecefc5bdff014348a8b09060200160405180910390a1506001600055565b6000611fc961270e565b5060045490565b60026000541415611ff35760405162461bcd60e51b81526004016101dd90612f21565b6002600090815582815260066020526040902060050180548290811061201b5761201b612f58565b60009182526020909120600490910201546001600160a01b031633146120755760405162461bcd60e51b815260206004820152600f60248201526e3737ba103a34329037b33332b932b960891b60448201526064016101dd565b6000828152600660205260409020600501805461209490600190612ff9565b815481106120a4576120a4612f58565b90600052602060002090600402016006600084815260200190815260200160002060050182815481106120d9576120d9612f58565b60009182526020808320845460049093020180546001600160a01b0319166001600160a01b0390931692909217825560018085015490830155600280850154908301556003938401549390910192909255838152600690915260409020600501805480612148576121486131e3565b60008281526020812060046000199093019283020180546001600160a01b0319168155600181018290556002810182905560030181905591556040517f4d318e68782a64afefbdb0dbe9ca0195766793bced05951b61152f2b9e6638a8916121cd91859133919283526001600160a01b03919091166020830152604082015260600190565b60405180910390a150506001600055565b600260005414156122015760405162461bcd60e51b81526004016101dd90612f21565b60026000558161224a5760405162461bcd60e51b8152602060048201526014602482015273616d6f756e742063616e2774206265207a65726f60601b60448201526064016101dd565b600083815260066020526040902060040154600160c01b900460ff1615612284576040516311893dcb60e01b815260040160405180910390fd5b604051636eb1769f60e11b815233600482015230602482015282907f00000000000000000000000000000000000000000000000000000000000000006001600160a01b03169063dd62ed3e90604401602060405180830381865afa1580156122f0573d6000803e3d6000fd5b505050506040513d601f19601f820116820180604052508101906123149190612f86565b10156123625760405162461bcd60e51b815260206004820152601a60248201527f6e6f7420656e6f7567682062616c616e636520616c6c6f77656400000000000060448201526064016101dd565b612396604051806080016040528060006001600160a01b031681526020016000815260200160008152602001600081525090565b338082524260608084019182526020808501878152604080870188815260008b815260068552828120600501805460018082018355918352918690208a5160049093020180546001600160a01b0319166001600160a01b0390931692909217825593519381019390935551600283015593516003909101558251888152908101939093529082018590527f9ce423f721817463c7cc902096f4dc780402a942570ea20e5577fa2db4942d4e9101611c48565b61245061270e565b604051632142170760e11b81526001600160a01b038416906342842e0e9061248090309085908790600401612ea6565b600060405180830381600087803b15801561249a57600080fd5b505af11580156124ae573d6000803e3d6000fd5b50505050505050565b60003330148015906124d15750326001600160a01b038816145b156124ee5760405162461bcd60e51b81526004016101dd90612dde565b7f6534e2b03649bd39764c956640f7fdd29d7bd36b642a687678e6a8e9147d5ed5878787878787604051612527969594939291906131f9565b60405180910390a15063f23a6e6160e01b9695505050505050565b61254a61270e565b6001600160a01b0381166125af5760405162461bcd60e51b815260206004820152602660248201527f4f776e61626c653a206e6577206f776e657220697320746865207a65726f206160448201526564647265737360d01b60648201526084016101dd565b6125b881612768565b50565b604080516101008101825260008082526020820181905291810182905260608082018390526080820183905260a0820183905260c082019290925260e081019190915260008281526006602090815260408083208151610100810183528154815260018201548185015260028201546001600160a01b039081168285015260038301548116606083015260048301549081166080830152600160a01b810460e090811b6001600160e01b03191660a0840152600160c01b90910460ff16151560c083015260058301805485518188028101880190965280865292969395918701949390929184015b82821015612700576000848152602090819020604080516080810182526004860290920180546001600160a01b031683526001808201548486015260028201549284019290925260030154606083015290835290920191016126a3565b505050915250909392505050565b6001546001600160a01b031633146107a25760405162461bcd60e51b815260206004820181905260248201527f4f776e61626c653a2063616c6c6572206973206e6f7420746865206f776e657260448201526064016101dd565b600180546001600160a01b038381166001600160a01b0319831681179093556040519116919082907f8be0079c531659141344cd1fd0a4f28419497f9722a3daafe3b4186f6b6457e090600090a35050565b600060015b6002548111612823576000818152600660205260409020600201546001600160a01b038581169116148015612804575060008181526006602052604090206001015483145b15612813576001915050610567565b61281c816130c1565b90506127bf565b5092915050565b60008060015b6002548111612945576000818152600660205260409020600201546001600160a01b038781169116148015612875575060008181526006602052604090206001015485145b801561289a57506000818152600660205260409020600301546001600160a01b031633145b156128ad57816128a9816130c1565b9250505b604051627eeac760e11b81526001600160a01b0385811660048301526024820187905283919088169062fdd58e90604401602060405180830381865afa1580156128fb573d6000803e3d6000fd5b505050506040513d601f19601f8201168201806040525081019061291f9190612f86565b1161292e576000925082612934565b60019250825b5061293e816130c1565b9050612830565b50509392505050565b60006020828403121561296057600080fd5b81356001600160e01b03198116811461297857600080fd5b9392505050565b6001600160a01b03811681146125b857600080fd5b60008083601f8401126129a657600080fd5b50813567ffffffffffffffff8111156129be57600080fd5b6020830191508360208285010111156129d657600080fd5b9250929050565b6000806000806000608086880312156129f557600080fd5b8535612a008161297f565b94506020860135612a108161297f565b935060408601359250606086013567ffffffffffffffff811115612a3357600080fd5b612a3f88828901612994565b969995985093965092949392505050565b6001600160e01b031991909116815260200190565b600060208284031215612a7757600080fd5b5035919050565b600060208284031215612a9057600080fd5b81356129788161297f565b60008060408385031215612aae57600080fd5b50508035926020909101359150565b600080600060608486031215612ad257600080fd5b8335612add8161297f565b95602085013595506040909401359392505050565b60008083601f840112612b0457600080fd5b50813567ffffffffffffffff811115612b1c57600080fd5b6020830191508360208260051b85010111156129d657600080fd5b60008060008060008060008060a0898b031215612b5357600080fd5b8835612b5e8161297f565b97506020890135612b6e8161297f565b9650604089013567ffffffffffffffff80821115612b8b57600080fd5b612b978c838d01612af2565b909850965060608b0135915080821115612bb057600080fd5b612bbc8c838d01612af2565b909650945060808b0135915080821115612bd557600080fd5b50612be28b828c01612994565b999c989b5096995094979396929594505050565b600080600060608486031215612c0b57600080fd5b505081359360208301359350604090920135919050565b600080600060608486031215612c3757600080fd5b8335612c428161297f565b9250602084013591506040840135612c598161297f565b809150509250925092565b60008060008060008060a08789031215612c7d57600080fd5b8635612c888161297f565b95506020870135612c988161297f565b94506040870135935060608701359250608087013567ffffffffffffffff811115612cc257600080fd5b612cce89828a01612994565b979a9699509497509295939492505050565b600081518084526020808501945080840160005b83811015612d3957815180516001600160a01b031688528381015184890152604080820151908901526060908101519088015260809096019590820190600101612cf4565b509495945050505050565b6020815281516020820152602082015160408201526000604083015160018060a01b03808216606085015280606086015116608085015250506080830151612d9760a08401826001600160a01b03169052565b5060a08301516001600160e01b0319811660c08401525060c083015180151560e08401525060e083015161010083810152612dd6610120840182612ce0565b949350505050565b6020808252601b908201527f646972656374207472616e73666572206e6f7420616c6c6f7765640000000000604082015260600190565b81835281816020850137506000828201602090810191909152601f909101601f19169091010190565b6001600160a01b03878116825286166020820152604081018590526060810184905260c0608082018190526006908201526545524337323160d01b60e0820152600061010082015b82810360a0840152612e99818587612e15565b9998505050505050505050565b6001600160a01b039384168152919092166020820152604081019190915260600190565b600060208284031215612edc57600080fd5b8151801515811461297857600080fd5b634e487b7160e01b600052601160045260246000fd5b6000816000190483118215151615612f1c57612f1c612eec565b500290565b6020808252601f908201527f5265656e7472616e637947756172643a207265656e7472616e742063616c6c00604082015260600190565b634e487b7160e01b600052603260045260246000fd5b60008219821115612f8157612f81612eec565b500190565b600060208284031215612f9857600080fd5b5051919050565b6001600160a01b0394851681529290931660208301526040820152606081019190915260a06080820181905260009082015260c00190565b600082612ff457634e487b7160e01b600052601260045260246000fd5b500490565b60008282101561300b5761300b612eec565b500390565b6000825160005b818110156130315760208186018101518583015201613017565b81811115613040576000828501525b509190910192915050565b60006020828403121561305d57600080fd5b81516129788161297f565b8581526001600160a01b038581166020830152604082018590528316606082015260c0608082018190526006908201526545524337323160d01b60e0820152600061010082015b90508260a08301529695505050505050565b60006000198214156130d5576130d5612eec565b5060010190565b8581526001600160a01b038581166020830152604082018590528316606082015260c060808201819052600790820152664552433131353560c81b60e0820152600061010082016130af565b81835260006001600160fb1b0383111561314157600080fd5b8260051b8083602087013760009401602001938452509192915050565b6001600160a01b0389811682528816602082015260c06040820181905260009061318b908301888a613128565b828103606084015261319e818789613128565b8381036080850181905260078252664552433131353560c81b6020830152604090810160a08601520190506131d4818587612e15565b9b9a5050505050505050505050565b634e487b7160e01b600052603160045260246000fd5b6001600160a01b03878116825286166020820152604081018590526060810184905260c060808201819052600790820152664552433131353560c81b60e082015260006101008201612e8656fea2646970667358221220698e6df80eacb1d0992c426de6f775816e880af4caa515326d19db506ce17f9d64736f6c634300080a0033",
    "linkReferences": {}
  },
  "methodIdentifiers": {
    "WETH()": "ad5c4648",
    "acceptOffer(uint256,uint256)": "81257bd5",
    "balanceOfEth(address)": "40654e14",
    "buySale(uint256)": "acf1190d",
    "cancelOffer(uint256,uint256)": "d45557cc",
    "cancelSale(uint256)": "bd94b005",
    "createSale(address,uint256,uint256)": "9f161af2",
    "getEthFees()": "98333334",
    "getSaleOrder(uint256)": "fa5c0c70",
    "getWEthFees()": "d06ceee8",
    "makeOffer(uint256,uint256,uint256)": "e210a72d",
    "marketOffersNonce()": "e37b0760",
    "marketPlaceFee()": "bf70e8ca",
    "modifySale(uint256,uint256)": "7f6763b1",
    "onERC1155BatchReceived(address,address,uint256[],uint256[],bytes)": "bc197c81",
    "onERC1155Received(address,address,uint256,uint256,bytes)": "f23a6e61",
    "onERC721Received(address,address,uint256,bytes)": "150b7a02",
    "owner()": "8da5cb5b",
    "renounceOwnership()": "715018a6",
    "setFees(uint256)": "3d18678e",
    "supportsInterface(bytes4)": "01ffc9a7",
    "transferOwnership(address)": "f2fde38b",
    "unlockNFT(address,uint256,address)": "f015498e",
    "withdrawEth()": "a0ef91df",
    "withdrawEthFees()": "2f5f1074",
    "withdrawWETHFees()": "508925bb"
  },
  "id": 0
}