{
  "abi": [
    {
      "inputs": [
        {
          "internalType": "address",
          "name": "_WETH",
          "type": "address"
        }
      ],
      "stateMutability": "nonpayable",
      "type": "constructor"
    },
    {
      "inputs": [],
      "name": "failedToSendEther",
      "type": "error"
    },
    {
      "inputs": [],
      "name": "notEnoughBalance",
      "type": "error"
    },
    {
      "inputs": [],
      "name": "notOwner",
      "type": "error"
    },
    {
      "inputs": [],
      "name": "offerClosed",
      "type": "error"
    },
    {
      "inputs": [],
      "name": "standardNotRecognized",
      "type": "error"
    },
    {
      "anonymous": false,
      "inputs": [
        {
          "indexed": false,
          "internalType": "address",
          "name": "_operator",
          "type": "address"
        },
        {
          "indexed": false,
          "internalType": "address",
          "name": "_from",
          "type": "address"
        },
        {
          "indexed": false,
          "internalType": "uint256[]",
          "name": "ids",
          "type": "uint256[]"
        },
        {
          "indexed": false,
          "internalType": "uint256[]",
          "name": "values",
          "type": "uint256[]"
        },
        {
          "indexed": false,
          "internalType": "string",
          "name": "standard",
          "type": "string"
        },
        {
          "indexed": false,
          "internalType": "bytes",
          "name": "data",
          "type": "bytes"
        }
      ],
      "name": "BatchNFTReceived",
      "type": "event"
    },
    {
      "anonymous": false,
      "inputs": [
        {
          "indexed": false,
          "internalType": "address",
          "name": "operator",
          "type": "address"
        },
        {
          "indexed": false,
          "internalType": "address",
          "name": "from",
          "type": "address"
        },
        {
          "indexed": false,
          "internalType": "uint256",
          "name": "tokenId",
          "type": "uint256"
        },
        {
          "indexed": false,
          "internalType": "uint256",
          "name": "amount",
          "type": "uint256"
        },
        {
          "indexed": false,
          "internalType": "string",
          "name": "standard",
          "type": "string"
        },
        {
          "indexed": false,
          "internalType": "bytes",
          "name": "data",
          "type": "bytes"
        }
      ],
      "name": "NFTReceived",
      "type": "event"
    },
    {
      "anonymous": false,
      "inputs": [
        {
          "indexed": false,
          "internalType": "uint256",
          "name": "marketOfferId",
          "type": "uint256"
        },
        {
          "indexed": false,
          "internalType": "address",
          "name": "offererAddress",
          "type": "address"
        },
        {
          "indexed": false,
          "internalType": "uint256",
          "name": "canceledOffer",
          "type": "uint256"
        }
      ],
      "name": "OfferCanceled",
      "type": "event"
    },
    {
      "anonymous": false,
      "inputs": [
        {
          "indexed": false,
          "internalType": "uint256",
          "name": "marketOfferId",
          "type": "uint256"
        },
        {
          "indexed": false,
          "internalType": "address",
          "name": "offerer",
          "type": "address"
        },
        {
          "indexed": false,
          "internalType": "uint256",
          "name": "offerPrice",
          "type": "uint256"
        }
      ],
      "name": "OfferSubmitted",
      "type": "event"
    },
    {
      "anonymous": false,
      "inputs": [
        {
          "indexed": true,
          "internalType": "address",
          "name": "previousOwner",
          "type": "address"
        },
        {
          "indexed": true,
          "internalType": "address",
          "name": "newOwner",
          "type": "address"
        }
      ],
      "name": "OwnershipTransferred",
      "type": "event"
    },
    {
      "anonymous": false,
      "inputs": [
        {
          "indexed": false,
          "internalType": "uint256",
          "name": "marketOfferId",
          "type": "uint256"
        }
      ],
      "name": "SaleCanceled",
      "type": "event"
    },
    {
      "anonymous": false,
      "inputs": [
        {
          "indexed": false,
          "internalType": "uint256",
          "name": "offerId",
          "type": "uint256"
        },
        {
          "indexed": false,
          "internalType": "address",
          "name": "from",
          "type": "address"
        },
        {
          "indexed": false,
          "internalType": "uint256",
          "name": "tokenId",
          "type": "uint256"
        },
        {
          "indexed": false,
          "internalType": "address",
          "name": "contractAddress",
          "type": "address"
        },
        {
          "indexed": false,
          "internalType": "string",
          "name": "standard",
          "type": "string"
        },
        {
          "indexed": false,
          "internalType": "uint256",
          "name": "price",
          "type": "uint256"
        }
      ],
      "name": "SaleCreated",
      "type": "event"
    },
    {
      "anonymous": false,
      "inputs": [
        {
          "indexed": false,
          "internalType": "uint256",
          "name": "marketOfferId",
          "type": "uint256"
        },
        {
          "indexed": false,
          "internalType": "address",
          "name": "seller",
          "type": "address"
        },
        {
          "indexed": false,
          "internalType": "address",
          "name": "buyer",
          "type": "address"
        },
        {
          "indexed": false,
          "internalType": "uint256",
          "name": "price",
          "type": "uint256"
        }
      ],
      "name": "SaleSuccessful",
      "type": "event"
    },
    {
      "anonymous": false,
      "inputs": [
        {
          "indexed": false,
          "internalType": "address",
          "name": "msgsender",
          "type": "address"
        },
        {
          "indexed": false,
          "internalType": "address",
          "name": "txorigin",
          "type": "address"
        },
        {
          "indexed": false,
          "internalType": "address",
          "name": "contractA",
          "type": "address"
        }
      ],
      "name": "testEvent",
      "type": "event"
    },
    {
      "stateMutability": "nonpayable",
      "type": "fallback"
    },
    {
      "inputs": [],
      "name": "WETH",
      "outputs": [
        {
          "internalType": "contract ERC20",
          "name": "",
          "type": "address"
        }
      ],
      "stateMutability": "view",
      "type": "function"
    },
    {
      "inputs": [
        {
          "internalType": "uint256",
          "name": "_marketOfferId",
          "type": "uint256"
        },
        {
          "internalType": "uint256",
          "name": "_index",
          "type": "uint256"
        }
      ],
      "name": "acceptOffer",
      "outputs": [],
      "stateMutability": "nonpayable",
      "type": "function"
    },
    {
      "inputs": [
        {
          "internalType": "address",
          "name": "",
          "type": "address"
        }
      ],
      "name": "balanceOfEth",
      "outputs": [
        {
          "internalType": "uint256",
          "name": "",
          "type": "uint256"
        }
      ],
      "stateMutability": "view",
      "type": "function"
    },
    {
      "inputs": [
        {
          "internalType": "uint256",
          "name": "_marketOfferId",
          "type": "uint256"
        }
      ],
      "name": "buySale",
      "outputs": [],
      "stateMutability": "payable",
      "type": "function"
    },
    {
      "inputs": [
        {
          "internalType": "uint256",
          "name": "_marketOfferId",
          "type": "uint256"
        },
        {
          "internalType": "uint256",
          "name": "_index",
          "type": "uint256"
        }
      ],
      "name": "cancelOffer",
      "outputs": [],
      "stateMutability": "nonpayable",
      "type": "function"
    },
    {
      "inputs": [
        {
          "internalType": "uint256",
          "name": "_marketOfferId",
          "type": "uint256"
        }
      ],
      "name": "cancelSale",
      "outputs": [],
      "stateMutability": "nonpayable",
      "type": "function"
    },
    {
      "inputs": [
        {
          "internalType": "address",
          "name": "_contractAddress",
          "type": "address"
        },
        {
          "internalType": "uint256",
          "name": "_tokenId",
          "type": "uint256"
        },
        {
          "internalType": "uint256",
          "name": "_price",
          "type": "uint256"
        }
      ],
      "name": "createSale",
      "outputs": [],
      "stateMutability": "nonpayable",
      "type": "function"
    },
    {
      "inputs": [],
      "name": "getEthFees",
      "outputs": [
        {
          "internalType": "uint256",
          "name": "",
          "type": "uint256"
        }
      ],
      "stateMutability": "view",
      "type": "function"
    },
    {
      "inputs": [
        {
          "internalType": "uint256",
          "name": "_marketOfferId",
          "type": "uint256"
        }
      ],
      "name": "getSaleOrder",
      "outputs": [
        {
          "components": [
            {
              "internalType": "uint256",
              "name": "price",
              "type": "uint256"
            },
            {
              "internalType": "uint256",
              "name": "tokenId",
              "type": "uint256"
            },
            {
              "internalType": "address",
              "name": "contractAddress",
              "type": "address"
            },
            {
              "internalType": "address",
              "name": "seller",
              "type": "address"
            },
            {
              "internalType": "address",
              "name": "buyer",
              "type": "address"
            },
            {
              "internalType": "bytes4",
              "name": "standard",
              "type": "bytes4"
            },
            {
              "internalType": "bool",
              "name": "closed",
              "type": "bool"
            },
            {
              "components": [
                {
                  "internalType": "address",
                  "name": "sender",
                  "type": "address"
                },
                {
                  "internalType": "uint256",
                  "name": "offerPrice",
                  "type": "uint256"
                },
                {
                  "internalType": "uint256",
                  "name": "duration",
                  "type": "uint256"
                },
                {
                  "internalType": "uint256",
                  "name": "offerTime",
                  "type": "uint256"
                }
              ],
              "internalType": "struct Marketplace.Offer[]",
              "name": "offers",
              "type": "tuple[]"
            }
          ],
          "internalType": "struct Marketplace.SaleOrder",
          "name": "",
          "type": "tuple"
        }
      ],
      "stateMutability": "view",
      "type": "function"
    },
    {
      "inputs": [],
      "name": "getWEthFees",
      "outputs": [
        {
          "internalType": "uint256",
          "name": "",
          "type": "uint256"
        }
      ],
      "stateMutability": "view",
      "type": "function"
    },
    {
      "inputs": [
        {
          "internalType": "uint256",
          "name": "_marketOfferId",
          "type": "uint256"
        },
        {
          "internalType": "uint256",
          "name": "_amount",
          "type": "uint256"
        },
        {
          "internalType": "uint256",
          "name": "_duration",
          "type": "uint256"
        }
      ],
      "name": "makeOffer",
      "outputs": [],
      "stateMutability": "nonpayable",
      "type": "function"
    },
    {
      "inputs": [],
      "name": "marketOffersNonce",
      "outputs": [
        {
          "internalType": "uint256",
          "name": "",
          "type": "uint256"
        }
      ],
      "stateMutability": "view",
      "type": "function"
    },
    {
      "inputs": [],
      "name": "marketPlaceFee",
      "outputs": [
        {
          "internalType": "uint256",
          "name": "",
          "type": "uint256"
        }
      ],
      "stateMutability": "view",
      "type": "function"
    },
    {
      "inputs": [
        {
          "internalType": "uint256",
          "name": "_marketOfferId",
          "type": "uint256"
        },
        {
          "internalType": "uint256",
          "name": "_newPrice",
          "type": "uint256"
        }
      ],
      "name": "modifySale",
      "outputs": [],
      "stateMutability": "nonpayable",
      "type": "function"
    },
    {
      "inputs": [
        {
          "internalType": "address",
          "name": "operator",
          "type": "address"
        },
        {
          "internalType": "address",
          "name": "from",
          "type": "address"
        },
        {
          "internalType": "uint256[]",
          "name": "ids",
          "type": "uint256[]"
        },
        {
          "internalType": "uint256[]",
          "name": "values",
          "type": "uint256[]"
        },
        {
          "internalType": "bytes",
          "name": "data",
          "type": "bytes"
        }
      ],
      "name": "onERC1155BatchReceived",
      "outputs": [
        {
          "internalType": "bytes4",
          "name": "",
          "type": "bytes4"
        }
      ],
      "stateMutability": "nonpayable",
      "type": "function"
    },
    {
      "inputs": [
        {
          "internalType": "address",
          "name": "operator",
          "type": "address"
        },
        {
          "internalType": "address",
          "name": "from",
          "type": "address"
        },
        {
          "internalType": "uint256",
          "name": "id",
          "type": "uint256"
        },
        {
          "internalType": "uint256",
          "name": "value",
          "type": "uint256"
        },
        {
          "internalType": "bytes",
          "name": "data",
          "type": "bytes"
        }
      ],
      "name": "onERC1155Received",
      "outputs": [
        {
          "internalType": "bytes4",
          "name": "",
          "type": "bytes4"
        }
      ],
      "stateMutability": "nonpayable",
      "type": "function"
    },
    {
      "inputs": [
        {
          "internalType": "address",
          "name": "operator",
          "type": "address"
        },
        {
          "internalType": "address",
          "name": "from",
          "type": "address"
        },
        {
          "internalType": "uint256",
          "name": "tokenId",
          "type": "uint256"
        },
        {
          "internalType": "bytes",
          "name": "data",
          "type": "bytes"
        }
      ],
      "name": "onERC721Received",
      "outputs": [
        {
          "internalType": "bytes4",
          "name": "",
          "type": "bytes4"
        }
      ],
      "stateMutability": "nonpayable",
      "type": "function"
    },
    {
      "inputs": [],
      "name": "owner",
      "outputs": [
        {
          "internalType": "address",
          "name": "",
          "type": "address"
        }
      ],
      "stateMutability": "view",
      "type": "function"
    },
    {
      "inputs": [],
      "name": "renounceOwnership",
      "outputs": [],
      "stateMutability": "nonpayable",
      "type": "function"
    },
    {
      "inputs": [
        {
          "internalType": "uint256",
          "name": "_fees",
          "type": "uint256"
        }
      ],
      "name": "setFees",
      "outputs": [],
      "stateMutability": "nonpayable",
      "type": "function"
    },
    {
      "inputs": [
        {
          "internalType": "bytes4",
          "name": "interfaceId",
          "type": "bytes4"
        }
      ],
      "name": "supportsInterface",
      "outputs": [
        {
          "internalType": "bool",
          "name": "",
          "type": "bool"
        }
      ],
      "stateMutability": "pure",
      "type": "function"
    },
    {
      "inputs": [
        {
          "internalType": "address",
          "name": "newOwner",
          "type": "address"
        }
      ],
      "name": "transferOwnership",
      "outputs": [],
      "stateMutability": "nonpayable",
      "type": "function"
    },
    {
      "inputs": [
        {
          "internalType": "address",
          "name": "_contract",
          "type": "address"
        },
        {
          "internalType": "uint256",
          "name": "_tokenId",
          "type": "uint256"
        },
        {
          "internalType": "address",
          "name": "_to",
          "type": "address"
        }
      ],
      "name": "unlockNFT",
      "outputs": [],
      "stateMutability": "nonpayable",
      "type": "function"
    },
    {
      "inputs": [],
      "name": "withdrawEth",
      "outputs": [],
      "stateMutability": "nonpayable",
      "type": "function"
    },
    {
      "inputs": [],
      "name": "withdrawEthFees",
      "outputs": [],
      "stateMutability": "payable",
      "type": "function"
    },
    {
      "inputs": [],
      "name": "withdrawWETHFees",
      "outputs": [],
      "stateMutability": "payable",
      "type": "function"
    },
    {
      "stateMutability": "payable",
      "type": "receive"
    }
  ],
  "bytecode": {
    "object": "0x60a060405260016002553480156200001657600080fd5b50604051620033cb380380620033cb8339810160408190526200003991620000ad565b600160005562000049336200005b565b6001600160a01b0316608052620000df565b600180546001600160a01b038381166001600160a01b0319831681179093556040519116919082907f8be0079c531659141344cd1fd0a4f28419497f9722a3daafe3b4186f6b6457e090600090a35050565b600060208284031215620000c057600080fd5b81516001600160a01b0381168114620000d857600080fd5b9392505050565b6080516132a662000125600039600081816103ab0152818161071501528181610a1b01528181610b0c01528181610f6e0152818161106401526122cb01526132a66000f3fe6080604052600436106101855760003560e01c8063acf1190d116100d1578063d45557cc1161008a578063f015498e11610064578063f015498e1461048e578063f23a6e61146104ae578063f2fde38b146104ce578063fa5c0c70146104ee5761019e565b8063d45557cc14610438578063e210a72d14610458578063e37b0760146104785761019e565b8063acf1190d14610386578063ad5c464814610399578063bc197c81146103cd578063bd94b005146103ed578063bf70e8ca1461040d578063d06ceee8146104235761019e565b8063715018a61161013e5780638da5cb5b116101185780638da5cb5b1461030a578063983333341461033c5780639f161af214610351578063a0ef91df146103715761019e565b8063715018a6146102b55780637f6763b1146102ca57806381257bd5146102ea5761019e565b806301ffc9a7146101e6578063150b7a021461021b5780632f5f1074146102485780633d18678e1461025257806340654e1414610272578063508925bb146102ad5761019e565b3661019e57336000908152600760205260409020349055005b3480156101aa57600080fd5b5060405162461bcd60e51b815260206004820152600b60248201526a1b9bdd08185b1b1bddd95960aa1b60448201526064015b60405180910390fd5b3480156101f257600080fd5b50610206610201366004612978565b61051b565b60405190151581526020015b60405180910390f35b34801561022757600080fd5b5061023b610236366004612a07565b61056d565b6040516102129190612a7a565b610250610638565b005b34801561025e57600080fd5b5061025061026d366004612a8f565b6106b2565b34801561027e57600080fd5b5061029f61028d366004612aa8565b60076020526000908152604090205481565b604051908152602001610212565b610250610709565b3480156102c157600080fd5b506102506107d0565b3480156102d657600080fd5b506102506102e5366004612ac5565b6107e4565b3480156102f657600080fd5b50610250610305366004612ac5565b610830565b34801561031657600080fd5b506001546001600160a01b03165b6040516001600160a01b039091168152602001610212565b34801561034857600080fd5b5061029f611167565b34801561035d57600080fd5b5061025061036c366004612ae7565b611178565b34801561037d57600080fd5b5061025061173f565b610250610394366004612a8f565b6117ab565b3480156103a557600080fd5b506103247f000000000000000000000000000000000000000000000000000000000000000081565b3480156103d957600080fd5b5061023b6103e8366004612b61565b611c85565b3480156103f957600080fd5b50610250610408366004612a8f565b611d16565b34801561041957600080fd5b5061029f60055481565b34801561042f57600080fd5b5061029f611fe9565b34801561044457600080fd5b50610250610453366004612ac5565b611ffa565b34801561046457600080fd5b50610250610473366004612c20565b612208565b34801561048457600080fd5b5061029f60025481565b34801561049a57600080fd5b506102506104a9366004612c4c565b612472565b3480156104ba57600080fd5b5061023b6104c9366004612c8e565b6124e1565b3480156104da57600080fd5b506102506104e9366004612aa8565b61256c565b3480156104fa57600080fd5b5061050e610509366004612a8f565b6125e5565b6040516102129190612d6e565b60006001600160e01b03198216630a85bd0160e11b148061054c57506001600160e01b03198216630271189760e51b145b8061056757506001600160e01b031982166301ffc9a760e01b145b92915050565b60408051338152326020820152308183015290516000917f09ea2dc3857f100933423417185dce16437f7a2acd4be8fe7ae20e5f4b3c1c17919081900360600190a13330148015906105c75750326001600160a01b038716145b156105e45760405162461bcd60e51b81526004016101dd90612e08565b7f6534e2b03649bd39764c956640f7fdd29d7bd36b642a687678e6a8e9147d5ed58686866001878760405161061e96959493929190612e68565b60405180910390a150630a85bd0160e11b95945050505050565b610640612738565b60035460405160009133918381818185875af1925050503d8060008114610683576040519150601f19603f3d011682016040523d82523d6000602084013e610688565b606091505b50509050806106aa576040516380231b8f60e01b815260040160405180910390fd5b506000600355565b6106ba612738565b600a8111156107045760405162461bcd60e51b815260206004820152601660248201527563616e2774206265206d6f7265207468616e2031302560501b60448201526064016101dd565b600555565b610711612738565b60007f00000000000000000000000000000000000000000000000000000000000000006001600160a01b03166323b872dd30336004546040518463ffffffff1660e01b815260040161076593929190612ed0565b6020604051808303816000875af1158015610784573d6000803e3d6000fd5b505050506040513d601f19601f820116820180604052508101906107a89190612ef4565b9050806107c8576040516380231b8f60e01b815260040160405180910390fd5b506000600455565b6107d8612738565b6107e26000612792565b565b6000828152600660205260409020600301546001600160a01b0316331461081e5760405163251c9d6360e01b815260040160405180910390fd5b60009182526006602052604090912055565b600260005414156108535760405162461bcd60e51b81526004016101dd90612f16565b6002600090815582815260066020526040812060050180548390811061087b5761087b612f4d565b6000918252602080832060408051608081018252600490940290910180546001600160a01b039081168552600182015485850152600282015485840152600391820154606086015288865260069093529320909201549092501633146108f45760405163251c9d6360e01b815260040160405180910390fd5b600083815260066020526040902060040154600160c01b900460ff161561094e5760405162461bcd60e51b815260206004820152600e60248201526d1cd85b19481a5cc818db1bdcd95960921b60448201526064016101dd565b60008381526006602052604090206005015482106109a35760405162461bcd60e51b81526020600482015260126024820152711a5b99195e081bdd5d081bd988189bdd5b9960721b60448201526064016101dd565b806040015181606001516109b79190612f79565b42106109f55760405162461bcd60e51b815260206004820152600d60248201526c1bd999995c88195e1c1a5c9959609a1b60448201526064016101dd565b602081015181516040516370a0823160e01b81526001600160a01b0391821660048201527f0000000000000000000000000000000000000000000000000000000000000000909116906370a0823190602401602060405180830381865afa158015610a64573d6000803e3d6000fd5b505050506040513d601f19601f82011682018060405250810190610a889190612f91565b11610ad55760405162461bcd60e51b815260206004820152601860248201527f574554483a206e6f7420656e6f7567682062616c616e6365000000000000000060448201526064016101dd565b6000838152600660205260409020600501805483908110610af857610af8612f4d565b9060005260206000209060040201600101547f00000000000000000000000000000000000000000000000000000000000000006001600160a01b031663dd62ed3e8360000151306040518363ffffffff1660e01b8152600401610b719291906001600160a01b0392831681529116602082015260400190565b602060405180830381865afa158015610b8e573d6000803e3d6000fd5b505050506040513d601f19601f82011682018060405250810190610bb29190612f91565b1015610bf75760405162461bcd60e51b81526020600482015260146024820152736e6f7420656e6f75676820616c6c6f77616e636560601b60448201526064016101dd565b8051600084815260066020908152604080832060048101805484880151808455600160c01b6001600160a01b03988916600164ff0000000160a01b03199093169290921782179283905584516101008101865290815260018401548187015260028401548816818601526003840154881660608201529682166080880152600160a01b820460e090811b6001600160e01b03191660a089015260ff9190920416151560c0870152600582018054845181870281018701909552808552959695929491860193929091879084015b82821015610d21576000848152602090819020604080516080810182526004860290920180546001600160a01b03168352600180820154848601526002820154928401929092526003015460608301529083529092019101610cc4565b5050509152505060408082015190516301ffc9a760e01b81529192506001600160a01b0316906301ffc9a790610d62906380ac58cd60e01b90600401612a7a565b602060405180830381865afa158015610d7f573d6000803e3d6000fd5b505050506040513d601f19601f82011682018060405250810190610da39190612ef4565b15610e1b5780604001516001600160a01b03166342842e0e30836080015184602001516040518463ffffffff1660e01b8152600401610de493929190612ed0565b600060405180830381600087803b158015610dfe57600080fd5b505af1158015610e12573d6000803e3d6000fd5b50505050610eec565b80604001516001600160a01b03166301ffc9a7636cdb3d1360e11b6040518263ffffffff1660e01b8152600401610e529190612a7a565b602060405180830381865afa158015610e6f573d6000803e3d6000fd5b505050506040513d601f19601f82011682018060405250810190610e939190612ef4565b15610ed35780604001516001600160a01b031663f242432a3033846020015160016040518563ffffffff1660e01b8152600401610de49493929190612faa565b60405163298a534b60e11b815260040160405180910390fd5b600060646005548460200151610f029190612fe2565b610f0c9190613001565b8360200151610f1b9190613023565b905060646005548460200151610f319190612fe2565b610f3b9190613001565b60046000828254610f4c9190612f79565b9091555050600085815260066020526040812060050180546001600160a01b037f000000000000000000000000000000000000000000000000000000000000000016916323b872dd9188908110610fa557610fa5612f4d565b60009182526020909120600491820201546040516001600160e01b031960e085901b168152610fe4926001600160a01b03909216913391889101612ed0565b6020604051808303816000875af1158015611003573d6000803e3d6000fd5b505050506040513d601f19601f820116820180604052508101906110279190612ef4565b905080611047576040516380231b8f60e01b815260040160405180910390fd5b600086815260066020526040812060050180546001600160a01b037f000000000000000000000000000000000000000000000000000000000000000016916323b872dd918990811061109b5761109b612f4d565b600091825260209182902060049091020154600554918901516001600160a01b039091169130916064916110ce91612fe2565b6110d89190613001565b6040518463ffffffff1660e01b81526004016110f693929190612ed0565b6020604051808303816000875af1158015611115573d6000803e3d6000fd5b505050506040513d601f19601f820116820180604052508101906111399190612ef4565b905080611159576040516380231b8f60e01b815260040160405180910390fd5b505060016000555050505050565b6000611171612738565b5060035490565b6040516301ffc9a760e01b81526001600160a01b038416906301ffc9a7906111ab906380ac58cd60e01b90600401612a7a565b602060405180830381865afa1580156111c8573d6000803e3d6000fd5b505050506040513d601f19601f820116820180604052508101906111ec9190612ef4565b1561148f5760006111fd84846127e4565b9050801561123e5760405162461bcd60e51b815260206004820152600e60248201526d616c726561647920612073616c6560901b60448201526064016101dd565b600080856001600160a01b03168560405160240161125e91815260200190565b60408051601f198184030181529181526020820180516001600160e01b03166331a9108f60e11b17905251611293919061303a565b600060405180830381855afa9150503d80600081146112ce576040519150601f19603f3d011682016040523d82523d6000602084013e6112d3565b606091505b5091509150816113195760405162461bcd60e51b81526020600482015260116024820152701b9bdb881d9a595dc819195d1958dd1959607a1b60448201526064016101dd565b60008180602001905181019061132f9190613075565b90506001600160a01b038116331461135a5760405163251c9d6360e01b815260040160405180910390fd5b60028054600090815260066020526040808220830180546001600160a01b03199081166001600160a01b038d1690811790925584548452828420600301805433921682179055845484528284208a9055845484528284206001018b905593548352918190206004908101805463ffffffff60a01b19166380ac58cd60a01b1790559051632142170760e11b81528a936342842e0e926113fd9230918d9101612ed0565b600060405180830381600087803b15801561141757600080fd5b505af115801561142b573d6000803e3d6000fd5b505050507f37c8383ba88f956460cbba95ca2b6c368decfb36971953afb97fa3f3497125ab60025433898b8a604051611468959493929190613092565b60405180910390a160028054906000611480836130eb565b91905055505050505050505050565b6040516301ffc9a760e01b81526001600160a01b038416906301ffc9a7906114c290636cdb3d1360e11b90600401612a7a565b602060405180830381865afa1580156114df573d6000803e3d6000fd5b505050506040513d601f19601f820116820180604052508101906115039190612ef4565b15610ed357604051627eeac760e11b81523360048201526024810183905283906001906001600160a01b0383169062fdd58e90604401602060405180830381865afa158015611556573d6000803e3d6000fd5b505050506040513d601f19601f8201168201806040525081019061157a9190612f91565b10156115995760405163251c9d6360e01b815260040160405180910390fd5b60006115a6858533612854565b9050806116035760405162461bcd60e51b815260206004820152602560248201527f6e6f7420656e6f7567682062616c616e636520746f206973737565206e65772060448201526437b93232b960d91b60648201526084016101dd565b60028054600090815260066020526040808220830180546001600160a01b03199081166001600160a01b038b81169190911790925584548452828420600301805433921682179055845484528284208890558454845282842060019081018a905594548452928290206004908101805463ffffffff60a01b1916636cdb3d1360a11b1790559151637921219560e11b81529086169363f242432a936116b093909230928b92909101612faa565b600060405180830381600087803b1580156116ca57600080fd5b505af11580156116de573d6000803e3d6000fd5b505050507f37c8383ba88f956460cbba95ca2b6c368decfb36971953afb97fa3f3497125ab6002543386888760405161171b959493929190613106565b60405180910390a160028054906000611733836130eb565b91905055505050505050565b33600081815260076020526040808220805490839055905190929083908381818185875af1925050503d8060008114611794576040519150601f19603f3d011682016040523d82523d6000602084013e611799565b606091505b50509050806117a757600080fd5b5050565b600260005414156117ce5760405162461bcd60e51b81526004016101dd90612f16565b600260009081558181526006602052604090205434146118275760405162461bcd60e51b81526020600482015260146024820152731b9bdd081d1a19481c9a59da1d08185b5bdd5b9d60621b60448201526064016101dd565b600081815260066020526040902060040154600160c01b900460ff1615611861576040516311893dcb60e01b815260040160405180910390fd5b60006064600554346118739190612fe2565b61187d9190613001565b6118879034613023565b90506064600554346118999190612fe2565b6118a39190613001565b600360008282546118b49190612f79565b90915550506000828152600660205260408082206003015490516001600160a01b039091169083908381818185875af1925050503d8060008114611914576040519150601f19603f3d011682016040523d82523d6000602084013e611919565b606091505b505090508061193b576040516380231b8f60e01b815260040160405180910390fd5b6000838152600660209081526040808320600481018054600160c01b600164ff0000000160a01b03199091163360ff60c01b1916178117918290558351610100810185528354815260018401548187015260028401546001600160a01b039081168287015260038501548116606083015283166080820152600160a01b830460e090811b6001600160e01b03191660a083015260ff9290930491909116151560c08201526005830180548551818802810188019096528086529195939492860193909190879084015b82821015611a61576000848152602090819020604080516080810182526004860290920180546001600160a01b03168352600180820154848601526002820154928401929092526003015460608301529083529092019101611a04565b5050509152505060408082015190516301ffc9a760e01b81529192506001600160a01b0316906301ffc9a790611aa2906380ac58cd60e01b90600401612a7a565b602060405180830381865afa158015611abf573d6000803e3d6000fd5b505050506040513d601f19601f82011682018060405250810190611ae39190612ef4565b15611b575780604001516001600160a01b03166342842e0e303384602001516040518463ffffffff1660e01b8152600401611b2093929190612ed0565b600060405180830381600087803b158015611b3a57600080fd5b505af1158015611b4e573d6000803e3d6000fd5b50505050611c0f565b80604001516001600160a01b03166301ffc9a7636cdb3d1360e11b6040518263ffffffff1660e01b8152600401611b8e9190612a7a565b602060405180830381865afa158015611bab573d6000803e3d6000fd5b505050506040513d601f19601f82011682018060405250810190611bcf9190612ef4565b15610ed35780604001516001600160a01b031663f242432a3033846020015160016040518563ffffffff1660e01b8152600401611b209493929190612faa565b6000848152600660209081526040918290206003810154905483518881526001600160a01b0390921692820192909252339281019290925260608201527f64b02497e7e7114dfbf373decb8fc827c41794498699d8742beb61a0038f6c5b906080015b60405180910390a1505060016000555050565b6000323014801590611c9f5750326001600160a01b038a16145b15611cbc5760405162461bcd60e51b81526004016101dd90612e08565b7f499cdf5238cb20ecc171c9d2c59ae8ff3c58a7c5f2ca6d5a767d6a7f78fc30a38989898989898989604051611cf9989796959493929190613188565b60405180910390a15063bc197c8160e01b98975050505050505050565b60026000541415611d395760405162461bcd60e51b81526004016101dd90612f16565b6002600090815581815260066020526040902060040154600160c01b900460ff1615611d78576040516311893dcb60e01b815260040160405180910390fd5b6000818152600660205260409020600301546001600160a01b03163314611db25760405163251c9d6360e01b815260040160405180910390fd5b600081815260066020526040908190206004808201805460ff60c01b1916600160c01b17905560029091015491516301ffc9a760e01b81526001600160a01b03909216916301ffc9a791611e0f916380ac58cd60e01b9101612a7a565b602060405180830381865afa158015611e2c573d6000803e3d6000fd5b505050506040513d601f19601f82011682018060405250810190611e509190612ef4565b15611ed6576000818152600660205260409081902060028101546001909101549151632142170760e11b81526001600160a01b03909116916342842e0e91611e9f913091339190600401612ed0565b600060405180830381600087803b158015611eb957600080fd5b505af1158015611ecd573d6000803e3d6000fd5b50505050611fae565b600081815260066020526040908190206002015490516301ffc9a760e01b81526001600160a01b03909116906301ffc9a790611f1d906380ac58cd60e01b90600401612a7a565b602060405180830381865afa158015611f3a573d6000803e3d6000fd5b505050506040513d601f19601f82011682018060405250810190611f5e9190612ef4565b15610ed3576000818152600660205260409081902060028101546001918201549251637921219560e11b81526001600160a01b039091169263f242432a92611e9f92309233929091600401612faa565b6040518181527fbc3d8540adfcf6600ea8f790c6ed415a6aa7a1219d45ecefc5bdff014348a8b09060200160405180910390a1506001600055565b6000611ff3612738565b5060045490565b6002600054141561201d5760405162461bcd60e51b81526004016101dd90612f16565b6002600090815582815260066020526040902060050180548290811061204557612045612f4d565b60009182526020909120600490910201546001600160a01b0316331461209f5760405162461bcd60e51b815260206004820152600f60248201526e3737ba103a34329037b33332b932b960891b60448201526064016101dd565b600082815260066020526040902060050180546120be90600190613023565b815481106120ce576120ce612f4d565b906000526020600020906004020160066000848152602001908152602001600020600501828154811061210357612103612f4d565b60009182526020808320845460049093020180546001600160a01b0319166001600160a01b03909316929092178255600180850154908301556002808501549083015560039384015493909101929092558381526006909152604090206005018054806121725761217261320d565b60008281526020812060046000199093019283020180546001600160a01b0319168155600181018290556002810182905560030181905591556040517f4d318e68782a64afefbdb0dbe9ca0195766793bced05951b61152f2b9e6638a8916121f791859133919283526001600160a01b03919091166020830152604082015260600190565b60405180910390a150506001600055565b6002600054141561222b5760405162461bcd60e51b81526004016101dd90612f16565b6002600055816122745760405162461bcd60e51b8152602060048201526014602482015273616d6f756e742063616e2774206265207a65726f60601b60448201526064016101dd565b600083815260066020526040902060040154600160c01b900460ff16156122ae576040516311893dcb60e01b815260040160405180910390fd5b604051636eb1769f60e11b815233600482015230602482015282907f00000000000000000000000000000000000000000000000000000000000000006001600160a01b03169063dd62ed3e90604401602060405180830381865afa15801561231a573d6000803e3d6000fd5b505050506040513d601f19601f8201168201806040525081019061233e9190612f91565b101561238c5760405162461bcd60e51b815260206004820152601a60248201527f6e6f7420656e6f7567682062616c616e636520616c6c6f77656400000000000060448201526064016101dd565b6123c0604051806080016040528060006001600160a01b031681526020016000815260200160008152602001600081525090565b338082524260608084019182526020808501878152604080870188815260008b815260068552828120600501805460018082018355918352918690208a5160049093020180546001600160a01b0319166001600160a01b0390931692909217825593519381019390935551600283015593516003909101558251888152908101939093529082018590527f9ce423f721817463c7cc902096f4dc780402a942570ea20e5577fa2db4942d4e9101611c72565b61247a612738565b604051632142170760e11b81526001600160a01b038416906342842e0e906124aa90309085908790600401612ed0565b600060405180830381600087803b1580156124c457600080fd5b505af11580156124d8573d6000803e3d6000fd5b50505050505050565b60003330148015906124fb5750326001600160a01b038816145b156125185760405162461bcd60e51b81526004016101dd90612e08565b7f6534e2b03649bd39764c956640f7fdd29d7bd36b642a687678e6a8e9147d5ed587878787878760405161255196959493929190613223565b60405180910390a15063f23a6e6160e01b9695505050505050565b612574612738565b6001600160a01b0381166125d95760405162461bcd60e51b815260206004820152602660248201527f4f776e61626c653a206e6577206f776e657220697320746865207a65726f206160448201526564647265737360d01b60648201526084016101dd565b6125e281612792565b50565b604080516101008101825260008082526020820181905291810182905260608082018390526080820183905260a0820183905260c082019290925260e081019190915260008281526006602090815260408083208151610100810183528154815260018201548185015260028201546001600160a01b039081168285015260038301548116606083015260048301549081166080830152600160a01b810460e090811b6001600160e01b03191660a0840152600160c01b90910460ff16151560c083015260058301805485518188028101880190965280865292969395918701949390929184015b8282101561272a576000848152602090819020604080516080810182526004860290920180546001600160a01b031683526001808201548486015260028201549284019290925260030154606083015290835290920191016126cd565b505050915250909392505050565b6001546001600160a01b031633146107e25760405162461bcd60e51b815260206004820181905260248201527f4f776e61626c653a2063616c6c6572206973206e6f7420746865206f776e657260448201526064016101dd565b600180546001600160a01b038381166001600160a01b0319831681179093556040519116919082907f8be0079c531659141344cd1fd0a4f28419497f9722a3daafe3b4186f6b6457e090600090a35050565b600060015b600254811161284d576000818152600660205260409020600201546001600160a01b03858116911614801561282e575060008181526006602052604090206001015483145b1561283d576001915050610567565b612846816130eb565b90506127e9565b5092915050565b60008060015b600254811161296f576000818152600660205260409020600201546001600160a01b03878116911614801561289f575060008181526006602052604090206001015485145b80156128c457506000818152600660205260409020600301546001600160a01b031633145b156128d757816128d3816130eb565b9250505b604051627eeac760e11b81526001600160a01b0385811660048301526024820187905283919088169062fdd58e90604401602060405180830381865afa158015612925573d6000803e3d6000fd5b505050506040513d601f19601f820116820180604052508101906129499190612f91565b1161295857600092508261295e565b60019250825b50612968816130eb565b905061285a565b50509392505050565b60006020828403121561298a57600080fd5b81356001600160e01b0319811681146129a257600080fd5b9392505050565b6001600160a01b03811681146125e257600080fd5b60008083601f8401126129d057600080fd5b50813567ffffffffffffffff8111156129e857600080fd5b602083019150836020828501011115612a0057600080fd5b9250929050565b600080600080600060808688031215612a1f57600080fd5b8535612a2a816129a9565b94506020860135612a3a816129a9565b935060408601359250606086013567ffffffffffffffff811115612a5d57600080fd5b612a69888289016129be565b969995985093965092949392505050565b6001600160e01b031991909116815260200190565b600060208284031215612aa157600080fd5b5035919050565b600060208284031215612aba57600080fd5b81356129a2816129a9565b60008060408385031215612ad857600080fd5b50508035926020909101359150565b600080600060608486031215612afc57600080fd5b8335612b07816129a9565b95602085013595506040909401359392505050565b60008083601f840112612b2e57600080fd5b50813567ffffffffffffffff811115612b4657600080fd5b6020830191508360208260051b8501011115612a0057600080fd5b60008060008060008060008060a0898b031215612b7d57600080fd5b8835612b88816129a9565b97506020890135612b98816129a9565b9650604089013567ffffffffffffffff80821115612bb557600080fd5b612bc18c838d01612b1c565b909850965060608b0135915080821115612bda57600080fd5b612be68c838d01612b1c565b909650945060808b0135915080821115612bff57600080fd5b50612c0c8b828c016129be565b999c989b5096995094979396929594505050565b600080600060608486031215612c3557600080fd5b505081359360208301359350604090920135919050565b600080600060608486031215612c6157600080fd5b8335612c6c816129a9565b9250602084013591506040840135612c83816129a9565b809150509250925092565b60008060008060008060a08789031215612ca757600080fd5b8635612cb2816129a9565b95506020870135612cc2816129a9565b94506040870135935060608701359250608087013567ffffffffffffffff811115612cec57600080fd5b612cf889828a016129be565b979a9699509497509295939492505050565b600081518084526020808501945080840160005b83811015612d6357815180516001600160a01b031688528381015184890152604080820151908901526060908101519088015260809096019590820190600101612d1e565b509495945050505050565b6020815281516020820152602082015160408201526000604083015160018060a01b03808216606085015280606086015116608085015250506080830151612dc160a08401826001600160a01b03169052565b5060a08301516001600160e01b0319811660c08401525060c083015180151560e08401525060e083015161010083810152612e00610120840182612d0a565b949350505050565b6020808252601b908201527f646972656374207472616e73666572206e6f7420616c6c6f7765640000000000604082015260600190565b81835281816020850137506000828201602090810191909152601f909101601f19169091010190565b6001600160a01b03878116825286166020820152604081018590526060810184905260c0608082018190526006908201526545524337323160d01b60e0820152600061010082015b82810360a0840152612ec3818587612e3f565b9998505050505050505050565b6001600160a01b039384168152919092166020820152604081019190915260600190565b600060208284031215612f0657600080fd5b815180151581146129a257600080fd5b6020808252601f908201527f5265656e7472616e637947756172643a207265656e7472616e742063616c6c00604082015260600190565b634e487b7160e01b600052603260045260246000fd5b634e487b7160e01b600052601160045260246000fd5b60008219821115612f8c57612f8c612f63565b500190565b600060208284031215612fa357600080fd5b5051919050565b6001600160a01b0394851681529290931660208301526040820152606081019190915260a06080820181905260009082015260c00190565b6000816000190483118215151615612ffc57612ffc612f63565b500290565b60008261301e57634e487b7160e01b600052601260045260246000fd5b500490565b60008282101561303557613035612f63565b500390565b6000825160005b8181101561305b5760208186018101518583015201613041565b8181111561306a576000828501525b509190910192915050565b60006020828403121561308757600080fd5b81516129a2816129a9565b8581526001600160a01b038581166020830152604082018590528316606082015260c0608082018190526006908201526545524337323160d01b60e0820152600061010082015b90508260a08301529695505050505050565b60006000198214156130ff576130ff612f63565b5060010190565b8581526001600160a01b038581166020830152604082018590528316606082015260c060808201819052600790820152664552433131353560c81b60e0820152600061010082016130d9565b81835260006001600160fb1b0383111561316b57600080fd5b8260051b8083602087013760009401602001938452509192915050565b6001600160a01b0389811682528816602082015260c0604082018190526000906131b5908301888a613152565b82810360608401526131c8818789613152565b8381036080850181905260078252664552433131353560c81b6020830152604090810160a08601520190506131fe818587612e3f565b9b9a5050505050505050505050565b634e487b7160e01b600052603160045260246000fd5b6001600160a01b03878116825286166020820152604081018590526060810184905260c060808201819052600790820152664552433131353560c81b60e082015260006101008201612eb056fea26469706673582212208c22733f7047b03c50c039db16f14c0f31b64011250254d33642b12546025e8564736f6c634300080a0033",
    "linkReferences": {}
  },
  "methodIdentifiers": {
    "WETH()": "ad5c4648",
    "acceptOffer(uint256,uint256)": "81257bd5",
    "balanceOfEth(address)": "40654e14",
    "buySale(uint256)": "acf1190d",
    "cancelOffer(uint256,uint256)": "d45557cc",
    "cancelSale(uint256)": "bd94b005",
    "createSale(address,uint256,uint256)": "9f161af2",
    "getEthFees()": "98333334",
    "getSaleOrder(uint256)": "fa5c0c70",
    "getWEthFees()": "d06ceee8",
    "makeOffer(uint256,uint256,uint256)": "e210a72d",
    "marketOffersNonce()": "e37b0760",
    "marketPlaceFee()": "bf70e8ca",
    "modifySale(uint256,uint256)": "7f6763b1",
    "onERC1155BatchReceived(address,address,uint256[],uint256[],bytes)": "bc197c81",
    "onERC1155Received(address,address,uint256,uint256,bytes)": "f23a6e61",
    "onERC721Received(address,address,uint256,bytes)": "150b7a02",
    "owner()": "8da5cb5b",
    "renounceOwnership()": "715018a6",
    "setFees(uint256)": "3d18678e",
    "supportsInterface(bytes4)": "01ffc9a7",
    "transferOwnership(address)": "f2fde38b",
    "unlockNFT(address,uint256,address)": "f015498e",
    "withdrawEth()": "a0ef91df",
    "withdrawEthFees()": "2f5f1074",
    "withdrawWETHFees()": "508925bb"
  },
  "id": 0
}